{
  "_format": "hh-sol-artifact-1",
  "contractName": "KittyContract",
  "sourceName": "contracts/KittyContract.sol",
  "abi": [
    {
      "inputs": [],
      "stateMutability": "nonpayable",
      "type": "constructor"
    },
    {
      "inputs": [],
      "name": "InvalidShortString",
      "type": "error"
    },
    {
      "inputs": [
        {
          "internalType": "string",
          "name": "str",
          "type": "string"
        }
      ],
      "name": "StringTooLong",
      "type": "error"
    },
    {
      "anonymous": false,
      "inputs": [
        {
          "indexed": true,
          "internalType": "address",
          "name": "owner",
          "type": "address"
        },
        {
          "indexed": true,
          "internalType": "address",
          "name": "approved",
          "type": "address"
        },
        {
          "indexed": true,
          "internalType": "uint256",
          "name": "tokenId",
          "type": "uint256"
        }
      ],
      "name": "Approval",
      "type": "event"
    },
    {
      "anonymous": false,
      "inputs": [
        {
          "indexed": true,
          "internalType": "address",
          "name": "owner",
          "type": "address"
        },
        {
          "indexed": true,
          "internalType": "address",
          "name": "operator",
          "type": "address"
        },
        {
          "indexed": false,
          "internalType": "bool",
          "name": "approved",
          "type": "bool"
        }
      ],
      "name": "ApprovalForAll",
      "type": "event"
    },
    {
      "anonymous": false,
      "inputs": [
        {
          "indexed": false,
          "internalType": "uint256",
          "name": "_fromTokenId",
          "type": "uint256"
        },
        {
          "indexed": false,
          "internalType": "uint256",
          "name": "_toTokenId",
          "type": "uint256"
        }
      ],
      "name": "BatchMetadataUpdate",
      "type": "event"
    },
    {
      "anonymous": false,
      "inputs": [],
      "name": "EIP712DomainChanged",
      "type": "event"
    },
    {
      "anonymous": false,
      "inputs": [
        {
          "indexed": false,
          "internalType": "uint256",
          "name": "_tokenId",
          "type": "uint256"
        }
      ],
      "name": "MetadataUpdate",
      "type": "event"
    },
    {
      "anonymous": false,
      "inputs": [
        {
          "indexed": true,
          "internalType": "bytes32",
          "name": "role",
          "type": "bytes32"
        },
        {
          "indexed": true,
          "internalType": "bytes32",
          "name": "previousAdminRole",
          "type": "bytes32"
        },
        {
          "indexed": true,
          "internalType": "bytes32",
          "name": "newAdminRole",
          "type": "bytes32"
        }
      ],
      "name": "RoleAdminChanged",
      "type": "event"
    },
    {
      "anonymous": false,
      "inputs": [
        {
          "indexed": true,
          "internalType": "bytes32",
          "name": "role",
          "type": "bytes32"
        },
        {
          "indexed": true,
          "internalType": "address",
          "name": "account",
          "type": "address"
        },
        {
          "indexed": true,
          "internalType": "address",
          "name": "sender",
          "type": "address"
        }
      ],
      "name": "RoleGranted",
      "type": "event"
    },
    {
      "anonymous": false,
      "inputs": [
        {
          "indexed": true,
          "internalType": "bytes32",
          "name": "role",
          "type": "bytes32"
        },
        {
          "indexed": true,
          "internalType": "address",
          "name": "account",
          "type": "address"
        },
        {
          "indexed": true,
          "internalType": "address",
          "name": "sender",
          "type": "address"
        }
      ],
      "name": "RoleRevoked",
      "type": "event"
    },
    {
      "anonymous": false,
      "inputs": [
        {
          "indexed": true,
          "internalType": "uint256",
          "name": "tokenId",
          "type": "uint256"
        },
        {
          "indexed": false,
          "internalType": "address",
          "name": "owner",
          "type": "address"
        },
        {
          "indexed": false,
          "internalType": "address",
          "name": "seller",
          "type": "address"
        },
        {
          "indexed": false,
          "internalType": "uint256",
          "name": "price",
          "type": "uint256"
        },
        {
          "indexed": false,
          "internalType": "bool",
          "name": "currentlyListed",
          "type": "bool"
        }
      ],
      "name": "TokenListedSuccess",
      "type": "event"
    },
    {
      "anonymous": false,
      "inputs": [
        {
          "indexed": true,
          "internalType": "address",
          "name": "from",
          "type": "address"
        },
        {
          "indexed": true,
          "internalType": "address",
          "name": "to",
          "type": "address"
        },
        {
          "indexed": true,
          "internalType": "uint256",
          "name": "tokenId",
          "type": "uint256"
        }
      ],
      "name": "Transfer",
      "type": "event"
    },
    {
      "inputs": [],
      "name": "DEFAULT_ADMIN_ROLE",
      "outputs": [
        {
          "internalType": "bytes32",
          "name": "",
          "type": "bytes32"
        }
      ],
      "stateMutability": "view",
      "type": "function"
    },
    {
      "inputs": [],
      "name": "MINTER_ROLE",
      "outputs": [
        {
          "internalType": "bytes32",
          "name": "",
          "type": "bytes32"
        }
      ],
      "stateMutability": "view",
      "type": "function"
    },
    {
      "inputs": [],
      "name": "PAUSER_ROLE",
      "outputs": [
        {
          "internalType": "bytes32",
          "name": "",
          "type": "bytes32"
        }
      ],
      "stateMutability": "view",
      "type": "function"
    },
    {
      "inputs": [
        {
          "internalType": "address",
          "name": "to",
          "type": "address"
        },
        {
          "internalType": "uint256",
          "name": "tokenId",
          "type": "uint256"
        }
      ],
      "name": "approve",
      "outputs": [],
      "stateMutability": "nonpayable",
      "type": "function"
    },
    {
      "inputs": [
        {
          "internalType": "address",
          "name": "owner",
          "type": "address"
        }
      ],
      "name": "balanceOf",
      "outputs": [
        {
          "internalType": "uint256",
          "name": "",
          "type": "uint256"
        }
      ],
      "stateMutability": "view",
      "type": "function"
    },
    {
      "inputs": [
        {
          "internalType": "uint256",
          "name": "tokenId",
          "type": "uint256"
        }
      ],
      "name": "burn",
      "outputs": [],
      "stateMutability": "nonpayable",
      "type": "function"
    },
    {
      "inputs": [
        {
          "internalType": "string",
          "name": "_tokenURI",
          "type": "string"
        },
        {
          "internalType": "uint256",
          "name": "price",
          "type": "uint256"
        },
        {
          "internalType": "uint256",
          "name": "generation",
          "type": "uint256"
        }
      ],
      "name": "createToken",
      "outputs": [
        {
          "internalType": "uint256",
          "name": "",
          "type": "uint256"
        }
      ],
      "stateMutability": "payable",
      "type": "function"
    },
    {
      "inputs": [],
      "name": "eip712Domain",
      "outputs": [
        {
          "internalType": "bytes1",
          "name": "fields",
          "type": "bytes1"
        },
        {
          "internalType": "string",
          "name": "name",
          "type": "string"
        },
        {
          "internalType": "string",
          "name": "version",
          "type": "string"
        },
        {
          "internalType": "uint256",
          "name": "chainId",
          "type": "uint256"
        },
        {
          "internalType": "address",
          "name": "verifyingContract",
          "type": "address"
        },
        {
          "internalType": "bytes32",
          "name": "salt",
          "type": "bytes32"
        },
        {
          "internalType": "uint256[]",
          "name": "extensions",
          "type": "uint256[]"
        }
      ],
      "stateMutability": "view",
      "type": "function"
    },
    {
      "inputs": [
        {
          "internalType": "uint256",
          "name": "tokenId",
          "type": "uint256"
        }
      ],
      "name": "executeSale",
      "outputs": [],
      "stateMutability": "payable",
      "type": "function"
    },
    {
      "inputs": [],
      "name": "getAllNFTs",
      "outputs": [
        {
          "components": [
            {
              "internalType": "uint256",
              "name": "tokenId",
              "type": "uint256"
            },
            {
              "internalType": "address payable",
              "name": "owner",
              "type": "address"
            },
            {
              "internalType": "address payable",
              "name": "seller",
              "type": "address"
            },
            {
              "internalType": "uint256",
              "name": "price",
              "type": "uint256"
            },
            {
              "internalType": "bool",
              "name": "currentlyListed",
              "type": "bool"
            }
          ],
          "internalType": "struct KittyContract.ListedToken[]",
          "name": "",
          "type": "tuple[]"
        }
      ],
      "stateMutability": "view",
      "type": "function"
    },
    {
      "inputs": [
        {
          "internalType": "uint256",
          "name": "tokenId",
          "type": "uint256"
        }
      ],
      "name": "getApproved",
      "outputs": [
        {
          "internalType": "address",
          "name": "",
          "type": "address"
        }
      ],
      "stateMutability": "view",
      "type": "function"
    },
    {
      "inputs": [],
      "name": "getMyNFTs",
      "outputs": [
        {
          "components": [
            {
              "internalType": "uint256",
              "name": "tokenId",
              "type": "uint256"
            },
            {
              "internalType": "address payable",
              "name": "owner",
              "type": "address"
            },
            {
              "internalType": "address payable",
              "name": "seller",
              "type": "address"
            },
            {
              "internalType": "uint256",
              "name": "price",
              "type": "uint256"
            },
            {
              "internalType": "bool",
              "name": "currentlyListed",
              "type": "bool"
            }
          ],
          "internalType": "struct KittyContract.ListedToken[]",
          "name": "",
          "type": "tuple[]"
        }
      ],
      "stateMutability": "view",
      "type": "function"
    },
    {
      "inputs": [
        {
          "internalType": "uint256",
          "name": "nonce",
          "type": "uint256"
        }
      ],
      "name": "getRandomNumber",
      "outputs": [
        {
          "internalType": "uint256",
          "name": "",
          "type": "uint256"
        }
      ],
      "stateMutability": "view",
      "type": "function"
    },
    {
      "inputs": [
        {
          "internalType": "bytes32",
          "name": "role",
          "type": "bytes32"
        }
      ],
      "name": "getRoleAdmin",
      "outputs": [
        {
          "internalType": "bytes32",
          "name": "",
          "type": "bytes32"
        }
      ],
      "stateMutability": "view",
      "type": "function"
    },
    {
      "inputs": [
        {
          "internalType": "bytes32",
          "name": "role",
          "type": "bytes32"
        },
        {
          "internalType": "address",
          "name": "account",
          "type": "address"
        }
      ],
      "name": "grantRole",
      "outputs": [],
      "stateMutability": "nonpayable",
      "type": "function"
    },
    {
      "inputs": [
        {
          "internalType": "bytes32",
          "name": "role",
          "type": "bytes32"
        },
        {
          "internalType": "address",
          "name": "account",
          "type": "address"
        }
      ],
      "name": "hasRole",
      "outputs": [
        {
          "internalType": "bool",
          "name": "",
          "type": "bool"
        }
      ],
      "stateMutability": "view",
      "type": "function"
    },
    {
      "inputs": [
        {
          "internalType": "address",
          "name": "owner",
          "type": "address"
        },
        {
          "internalType": "address",
          "name": "operator",
          "type": "address"
        }
      ],
      "name": "isApprovedForAll",
      "outputs": [
        {
          "internalType": "bool",
          "name": "",
          "type": "bool"
        }
      ],
      "stateMutability": "view",
      "type": "function"
    },
    {
      "inputs": [],
      "name": "name",
      "outputs": [
        {
          "internalType": "string",
          "name": "",
          "type": "string"
        }
      ],
      "stateMutability": "view",
      "type": "function"
    },
    {
      "inputs": [
        {
          "internalType": "uint256",
          "name": "tokenId",
          "type": "uint256"
        }
      ],
      "name": "ownerOf",
      "outputs": [
        {
          "internalType": "address",
          "name": "",
          "type": "address"
        }
      ],
      "stateMutability": "view",
      "type": "function"
    },
    {
      "inputs": [
        {
          "internalType": "bytes32",
          "name": "role",
          "type": "bytes32"
        },
        {
          "internalType": "address",
          "name": "account",
          "type": "address"
        }
      ],
      "name": "renounceRole",
      "outputs": [],
      "stateMutability": "nonpayable",
      "type": "function"
    },
    {
      "inputs": [
        {
          "internalType": "bytes32",
          "name": "role",
          "type": "bytes32"
        },
        {
          "internalType": "address",
          "name": "account",
          "type": "address"
        }
      ],
      "name": "revokeRole",
      "outputs": [],
      "stateMutability": "nonpayable",
      "type": "function"
    },
    {
      "inputs": [
        {
          "internalType": "address",
          "name": "from",
          "type": "address"
        },
        {
          "internalType": "address",
          "name": "to",
          "type": "address"
        },
        {
          "internalType": "uint256",
          "name": "tokenId",
          "type": "uint256"
        }
      ],
      "name": "safeTransferFrom",
      "outputs": [],
      "stateMutability": "nonpayable",
      "type": "function"
    },
    {
      "inputs": [
        {
          "internalType": "address",
          "name": "from",
          "type": "address"
        },
        {
          "internalType": "address",
          "name": "to",
          "type": "address"
        },
        {
          "internalType": "uint256",
          "name": "tokenId",
          "type": "uint256"
        },
        {
          "internalType": "bytes",
          "name": "data",
          "type": "bytes"
        }
      ],
      "name": "safeTransferFrom",
      "outputs": [],
      "stateMutability": "nonpayable",
      "type": "function"
    },
    {
      "inputs": [
        {
          "internalType": "address",
          "name": "operator",
          "type": "address"
        },
        {
          "internalType": "bool",
          "name": "approved",
          "type": "bool"
        }
      ],
      "name": "setApprovalForAll",
      "outputs": [],
      "stateMutability": "nonpayable",
      "type": "function"
    },
    {
      "inputs": [
        {
          "internalType": "bytes4",
          "name": "interfaceId",
          "type": "bytes4"
        }
      ],
      "name": "supportsInterface",
      "outputs": [
        {
          "internalType": "bool",
          "name": "",
          "type": "bool"
        }
      ],
      "stateMutability": "view",
      "type": "function"
    },
    {
      "inputs": [],
      "name": "symbol",
      "outputs": [
        {
          "internalType": "string",
          "name": "",
          "type": "string"
        }
      ],
      "stateMutability": "view",
      "type": "function"
    },
    {
      "inputs": [
        {
          "internalType": "uint256",
          "name": "index",
          "type": "uint256"
        }
      ],
      "name": "tokenByIndex",
      "outputs": [
        {
          "internalType": "uint256",
          "name": "",
          "type": "uint256"
        }
      ],
      "stateMutability": "view",
      "type": "function"
    },
    {
      "inputs": [
        {
          "internalType": "address",
          "name": "owner",
          "type": "address"
        },
        {
          "internalType": "uint256",
          "name": "index",
          "type": "uint256"
        }
      ],
      "name": "tokenOfOwnerByIndex",
      "outputs": [
        {
          "internalType": "uint256",
          "name": "",
          "type": "uint256"
        }
      ],
      "stateMutability": "view",
      "type": "function"
    },
    {
      "inputs": [
        {
          "internalType": "uint256",
          "name": "tokenId",
          "type": "uint256"
        }
      ],
      "name": "tokenURI",
      "outputs": [
        {
          "internalType": "string",
          "name": "",
          "type": "string"
        }
      ],
      "stateMutability": "view",
      "type": "function"
    },
    {
      "inputs": [],
      "name": "totalSupply",
      "outputs": [
        {
          "internalType": "uint256",
          "name": "",
          "type": "uint256"
        }
      ],
      "stateMutability": "view",
      "type": "function"
    },
    {
      "inputs": [
        {
          "internalType": "address",
          "name": "from",
          "type": "address"
        },
        {
          "internalType": "address",
          "name": "to",
          "type": "address"
        },
        {
          "internalType": "uint256",
          "name": "tokenId",
          "type": "uint256"
        }
      ],
      "name": "transferFrom",
      "outputs": [],
      "stateMutability": "nonpayable",
      "type": "function"
    }
  ],
  "bytecode": "0x61016060405266038d7ea4c68000601255600a6013553480156200002257600080fd5b50604080518082018252600d8082526c12da5d1d1e50dbdb9d1c9858dd609a1b60208084018290528451808601865260018152603160f81b8183015285518087018752938452838201929092528451808601909552600385526212d25560ea1b9085015291926000620000968382620003ab565b506001620000a58282620003ab565b50620000b79150839050600c620001dc565b61012052620000c881600d620001dc565b61014052815160208084019190912060e052815190820120610100524660a0526200015660e05161010051604080517f8b73c3c69bb8fe3d512ecc4cf759cc79239f7b179b0ffacaa9a75d522b39400f60208201529081019290925260608201524660808201523060a082015260009060c00160405160208183030381529060405280519060200120905090565b60805250503060c0526200016c60003362000215565b620001987f65d7a28e3265b37a6474929f336521b332c1681b933f6cb9f3376673440d862a3362000215565b620001c47f9f2df0fed2c77648de5860a4cc508cd0818c85b8b8a1ab4ceeef8d981c8956a63362000215565b601180546001600160a01b03191633179055620004ec565b6000602083511015620001fc57620001f483620002ba565b90506200020f565b81620002098482620003ab565b5060ff90505b92915050565b6000828152600b602090815260408083206001600160a01b038516845290915290205460ff16620002b6576000828152600b602090815260408083206001600160a01b03851684529091529020805460ff19166001179055620002753390565b6001600160a01b0316816001600160a01b0316837f2f8788117e7eff1d82e926ec794901d17c78024a50270940304540a733656f0d60405160405180910390a45b5050565b600080829050601f81511115620002f1578260405163305a27a960e01b8152600401620002e8919062000477565b60405180910390fd5b8051620002fe82620004c7565b179392505050565b634e487b7160e01b600052604160045260246000fd5b600181811c908216806200033157607f821691505b6020821081036200035257634e487b7160e01b600052602260045260246000fd5b50919050565b601f821115620003a657600081815260208120601f850160051c81016020861015620003815750805b601f850160051c820191505b81811015620003a2578281556001016200038d565b5050505b505050565b81516001600160401b03811115620003c757620003c762000306565b620003df81620003d884546200031c565b8462000358565b602080601f831160018114620004175760008415620003fe5750858301515b600019600386901b1c1916600185901b178555620003a2565b600085815260208120601f198616915b82811015620004485788860151825594840194600190910190840162000427565b5085821015620004675787850151600019600388901b60f8161c191681555b5050505050600190811b01905550565b600060208083528351808285015260005b81811015620004a65785810183015185820160400152820162000488565b506000604082860101526040601f19601f8301168501019250505092915050565b80516020808301519190811015620003525760001960209190910360031b1b16919050565b60805160a05160c05160e05161010051610120516101405161323f620005386000396000610db101526000610d860152600050506000505060005050600050506000505061323f6000f3fe6080604052600436106101d85760003560e01c806370a0823111610102578063b88d4fde11610095578063d547741f11610064578063d547741f1461056b578063e0391b091461058b578063e63ab1e9146105a0578063e985e9c5146105d457600080fd5b8063b88d4fde146104e4578063bec2a7c514610504578063c87b56dd14610517578063d53913931461053757600080fd5b80639b1225c4116100d15780639b1225c41461047c578063a217fddf1461048f578063a22cb465146104a4578063b37217a4146104c457600080fd5b806370a08231146103ff57806384b0196e1461041f57806391d148541461044757806395d89b411461046757600080fd5b80632f2ff15d1161017a57806342966c681161014957806342966c681461037d5780634f6ccce71461039d578063629cb2e4146103bd5780636352211e146103df57600080fd5b80632f2ff15d146102fd5780632f745c591461031d57806336568abe1461033d57806342842e0e1461035d57600080fd5b8063095ea7b3116101b6578063095ea7b31461026c57806318160ddd1461028e57806323b872dd146102ad578063248a9ca3146102cd57600080fd5b806301ffc9a7146101dd57806306fdde0314610212578063081812fc14610234575b600080fd5b3480156101e957600080fd5b506101fd6101f8366004612962565b61061d565b60405190151581526020015b60405180910390f35b34801561021e57600080fd5b5061022761062e565b60405161020991906129cf565b34801561024057600080fd5b5061025461024f3660046129e2565b6106c0565b6040516001600160a01b039091168152602001610209565b34801561027857600080fd5b5061028c610287366004612a17565b6106e7565b005b34801561029a57600080fd5b506008545b604051908152602001610209565b3480156102b957600080fd5b5061028c6102c8366004612a41565b610801565b3480156102d957600080fd5b5061029f6102e83660046129e2565b6000908152600b602052604090206001015490565b34801561030957600080fd5b5061028c610318366004612a7d565b610833565b34801561032957600080fd5b5061029f610338366004612a17565b610858565b34801561034957600080fd5b5061028c610358366004612a7d565b6108ee565b34801561036957600080fd5b5061028c610378366004612a41565b61096c565b34801561038957600080fd5b5061028c6103983660046129e2565b610987565b3480156103a957600080fd5b5061029f6103b83660046129e2565b6109b8565b3480156103c957600080fd5b506103d2610a4b565b6040516102099190612aa9565b3480156103eb57600080fd5b506102546103fa3660046129e2565b610c92565b34801561040b57600080fd5b5061029f61041a366004612b25565b610cf2565b34801561042b57600080fd5b50610434610d78565b6040516102099796959493929190612b40565b34801561045357600080fd5b506101fd610462366004612a7d565b610e01565b34801561047357600080fd5b50610227610e2c565b61028c61048a3660046129e2565b610e3b565b34801561049b57600080fd5b5061029f600081565b3480156104b057600080fd5b5061028c6104bf366004612bd6565b61103e565b3480156104d057600080fd5b5061029f6104df3660046129e2565b611049565b3480156104f057600080fd5b5061028c6104ff366004612c9e565b6110ba565b61029f610512366004612d1a565b6110f2565b34801561052357600080fd5b506102276105323660046129e2565b611136565b34801561054357600080fd5b5061029f7f9f2df0fed2c77648de5860a4cc508cd0818c85b8b8a1ab4ceeef8d981c8956a681565b34801561057757600080fd5b5061028c610586366004612a7d565b611141565b34801561059757600080fd5b506103d2611166565b3480156105ac57600080fd5b5061029f7f65d7a28e3265b37a6474929f336521b332c1681b933f6cb9f3376673440d862a81565b3480156105e057600080fd5b506101fd6105ef366004612d7c565b6001600160a01b03918216600090815260056020908152604080832093909416825291909152205460ff1690565b6000610628826112b0565b92915050565b60606000805461063d90612da6565b80601f016020809104026020016040519081016040528092919081815260200182805461066990612da6565b80156106b65780601f1061068b576101008083540402835291602001916106b6565b820191906000526020600020905b81548152906001019060200180831161069957829003601f168201915b5050505050905090565b60006106cb826112d5565b506000908152600460205260409020546001600160a01b031690565b60006106f282610c92565b9050806001600160a01b0316836001600160a01b0316036107645760405162461bcd60e51b815260206004820152602160248201527f4552433732313a20617070726f76616c20746f2063757272656e74206f776e656044820152603960f91b60648201526084015b60405180910390fd5b336001600160a01b0382161480610780575061078081336105ef565b6107f25760405162461bcd60e51b815260206004820152603d60248201527f4552433732313a20617070726f76652063616c6c6572206973206e6f7420746f60448201527f6b656e206f776e6572206f7220617070726f76656420666f7220616c6c000000606482015260840161075b565b6107fc8383611334565b505050565b61080c335b826113a2565b6108285760405162461bcd60e51b815260040161075b90612de0565b6107fc838383611420565b6000828152600b602052604090206001015461084e81611599565b6107fc83836115a3565b600061086383610cf2565b82106108c55760405162461bcd60e51b815260206004820152602b60248201527f455243373231456e756d657261626c653a206f776e657220696e646578206f7560448201526a74206f6620626f756e647360a81b606482015260840161075b565b506001600160a01b03919091166000908152600660209081526040808320938352929052205490565b6001600160a01b038116331461095e5760405162461bcd60e51b815260206004820152602f60248201527f416363657373436f6e74726f6c3a2063616e206f6e6c792072656e6f756e636560448201526e103937b632b9903337b91039b2b63360891b606482015260840161075b565b6109688282611629565b5050565b6107fc838383604051806020016040528060008152506110ba565b61099033610806565b6109ac5760405162461bcd60e51b815260040161075b90612de0565b6109b581611690565b50565b60006109c360085490565b8210610a265760405162461bcd60e51b815260206004820152602c60248201527f455243373231456e756d657261626c653a20676c6f62616c20696e646578206f60448201526b7574206f6620626f756e647360a01b606482015260840161075b565b60088281548110610a3957610a39612e2d565b90600052602060002001549050919050565b60606000610a58600f5490565b905060008080805b84811015610af0573360146000610a78846001612e59565b81526020810191909152604001600020600101546001600160a01b03161480610acb57503360146000610aac846001612e59565b81526020810191909152604001600020600201546001600160a01b0316145b15610ade57610adb600185612e59565b93505b80610ae881612e6c565b915050610a60565b5060008367ffffffffffffffff811115610b0c57610b0c612c12565b604051908082528060200260200182016040528015610b6557816020015b6040805160a081018252600080825260208083018290529282018190526060820181905260808201528252600019909201910181610b2a5790505b50905060005b85811015610c88573360146000610b83846001612e59565b81526020810191909152604001600020600101546001600160a01b03161480610bd657503360146000610bb7846001612e59565b81526020810191909152604001600020600201546001600160a01b0316145b15610c7657610be6816001612e59565b600081815260146020908152604091829020825160a0810184528154815260018201546001600160a01b039081169382019390935260028201549092169282019290925260038201546060820152600482015460ff161515608082015284519295509091849087908110610c5c57610c5c612e2d565b6020908102919091010152610c72600186612e59565b9450505b80610c8081612e6c565b915050610b6b565b5095945050505050565b6000818152600260205260408120546001600160a01b0316806106285760405162461bcd60e51b8152602060048201526018602482015277115490cdcc8c4e881a5b9d985b1a59081d1bdad95b88125160421b604482015260640161075b565b60006001600160a01b038216610d5c5760405162461bcd60e51b815260206004820152602960248201527f4552433732313a2061646472657373207a65726f206973206e6f7420612076616044820152683634b21037bbb732b960b91b606482015260840161075b565b506001600160a01b031660009081526003602052604090205490565b600060608082808083610dac7f0000000000000000000000000000000000000000000000000000000000000000600c611699565b610dd77f0000000000000000000000000000000000000000000000000000000000000000600d611699565b60408051600080825260208201909252600f60f81b9b939a50919850469750309650945092509050565b6000918252600b602090815260408084206001600160a01b0393909316845291905290205460ff1690565b60606001805461063d90612da6565b6000818152601460209081526040918290206003810154600290910154835180850190945260098452681c1c9a58d94e88095960ba1b92840192909252916001600160a01b0390911690610e8f9083611744565b610eba604051806040016040528060098152602001681d985b1d594e88095960ba1b81525034611744565b60408051808201909152600981526876616c75653a20257360b81b6020820152601154610ef091906001600160a01b0316611789565b813414610f67576040805162461bcd60e51b81526020600482015260248101919091527f506c65617365207375626d6974207468652061736b696e67207072696365206960448201527f6e206f7264657220746f20636f6d706c65746520746865207075726368617365606482015260840161075b565b600083815260146020526040902060048101805460ff1916600117905560020180546001600160a01b03191633179055610fa5601080546001019055565b610fb0303385611420565b610fba30846106e7565b6000610fc63447612e85565b6011546040519192506001600160a01b03169082156108fc029083906000818181858888f19350505050158015611001573d6000803e3d6000fd5b506040516001600160a01b038316903480156108fc02916000818181858888f19350505050158015611037573d6000803e3d6000fd5b5050505050565b6109683383836117ce565b6040805142602082015244918101919091526bffffffffffffffffffffffff1941606090811b82168184015233901b16607482015260888101829052600090819060a80160408051601f1981840301815291905280516020909101209050826110b181612e6c565b50909392505050565b6110c433836113a2565b6110e05760405162461bcd60e51b815260040161075b90612de0565b6110ec8484848461189c565b50505050565b6000611102600f80546001019055565b600061110d600f5490565b905061111933826118cf565b61112381866118e9565b61112e8185856119b4565b949350505050565b606061062882611bc8565b6000828152600b602052604090206001015461115c81611599565b6107fc8383611629565b60606000611173600f5490565b905060008167ffffffffffffffff81111561119057611190612c12565b6040519080825280602002602001820160405280156111e957816020015b6040805160a0810182526000808252602080830182905292820181905260608201819052608082015282526000199092019101816111ae5790505b509050600080805b848110156112a657611204816001612e59565b600081815260146020908152604091829020825160a0810184528154815260018201546001600160a01b039081169382019390935260028201549092169282019290925260038201546060820152600482015460ff16151560808201528651929450909186908690811061127a5761127a612e2d565b6020908102919091010152611290600185612e59565b935050808061129e90612e6c565b9150506111f1565b5091949350505050565b60006001600160e01b03198216637965db0b60e01b1480610628575061062882611cd0565b6000818152600260205260409020546001600160a01b03166109b55760405162461bcd60e51b8152602060048201526018602482015277115490cdcc8c4e881a5b9d985b1a59081d1bdad95b88125160421b604482015260640161075b565b600081815260046020526040902080546001600160a01b0319166001600160a01b038416908117909155819061136982610c92565b6001600160a01b03167f8c5be1e5ebec7d5bd14f71427d1e84f3dd0314c0f7b2291e5b200ac8c7c3b92560405160405180910390a45050565b6000806113ae83610c92565b9050806001600160a01b0316846001600160a01b031614806113f557506001600160a01b0380821660009081526005602090815260408083209388168352929052205460ff165b8061112e5750836001600160a01b031661140e846106c0565b6001600160a01b031614949350505050565b826001600160a01b031661143382610c92565b6001600160a01b0316146114595760405162461bcd60e51b815260040161075b90612e98565b6001600160a01b0382166114bb5760405162461bcd60e51b8152602060048201526024808201527f4552433732313a207472616e7366657220746f20746865207a65726f206164646044820152637265737360e01b606482015260840161075b565b6114c88383836001611cf5565b826001600160a01b03166114db82610c92565b6001600160a01b0316146115015760405162461bcd60e51b815260040161075b90612e98565b600081815260046020908152604080832080546001600160a01b03199081169091556001600160a01b0387811680865260038552838620805460001901905590871680865283862080546001019055868652600290945282852080549092168417909155905184937fddf252ad1be2c89b69c2b068fc378daa952ba7f163c4a11628f55a4df523b3ef91a46107fc8383836001611d01565b6109b58133611d06565b6115ad8282610e01565b610968576000828152600b602090815260408083206001600160a01b03851684529091529020805460ff191660011790556115e53390565b6001600160a01b0316816001600160a01b0316837f2f8788117e7eff1d82e926ec794901d17c78024a50270940304540a733656f0d60405160405180910390a45050565b6116338282610e01565b15610968576000828152600b602090815260408083206001600160a01b0385168085529252808320805460ff1916905551339285917ff6391f5c32d9c69d2a47ea670b442974b53935d1edc7fd64eb21e047a839171b9190a45050565b6109b581611d5f565b606060ff83146116b3576116ac83611d9f565b9050610628565b8180546116bf90612da6565b80601f01602080910402602001604051908101604052809291908181526020018280546116eb90612da6565b80156117385780601f1061170d57610100808354040283529160200191611738565b820191906000526020600020905b81548152906001019060200180831161171b57829003601f168201915b50505050509050610628565b610968828260405160240161175a929190612edd565b60408051601f198184030181529190526020810180516001600160e01b0316632d839cb360e21b179052611dde565b610968828260405160240161179f929190612eff565b60408051601f198184030181529190526020810180516001600160e01b031663319af33360e01b179052611dde565b816001600160a01b0316836001600160a01b03160361182f5760405162461bcd60e51b815260206004820152601960248201527f4552433732313a20617070726f766520746f2063616c6c657200000000000000604482015260640161075b565b6001600160a01b03838116600081815260056020908152604080832094871680845294825291829020805460ff191686151590811790915591519182527f17307eab39ab6107e8899845ad3d59bd9653f200f220920489ca2b5937696c31910160405180910390a3505050565b6118a7848484611420565b6118b384848484611de7565b6110ec5760405162461bcd60e51b815260040161075b90612f29565b610968828260405180602001604052806000815250611ee8565b6000828152600260205260409020546001600160a01b03166119645760405162461bcd60e51b815260206004820152602e60248201527f45524337323155524953746f726167653a2055524920736574206f66206e6f6e60448201526d32bc34b9ba32b73a103a37b5b2b760911b606482015260840161075b565b6000828152600a6020526040902061197c8282612fc9565b506040518281527ff8e1a15aba9398e019f0b49df1a4fde98ee17ae345cb5f6b5e2c27f5033e8ce79060200160405180910390a15050565b8015611a1d576119c381611f1b565b3414611a1d5760405162461bcd60e51b815260206004820152602360248201527f486f706566756c6c792073656e64696e672074686520636f727265637420707260448201526269636560e81b606482015260840161075b565b60008211611a785760405162461bcd60e51b815260206004820152602260248201527f4d616b652073757265207468652070726963652069736e2774206e6567617469604482015261766560f01b606482015260840161075b565b6000811180611a9157506011546001600160a01b031633145b611add5760405162461bcd60e51b815260206004820152601e60248201527f4f6e6c79204f776e6572206372656174652067656e65726174696f6e20300000604482015260640161075b565b6040805160a081018252848152306020808301828152338486018181526060860189815260016080880181815260008d815260149097529890952096518755925193860180546001600160a01b039586166001600160a01b03199182161790915590516002870180549190951691161790925551600384015592516004909201805492151560ff1990931692909217909155611b7a919085611420565b604080513081523360208201529081018390526001606082015283907f9339409317fd01fabff48b703019016f49159bacc801ae872d2ca637d226e4c09060800160405180910390a2505050565b6060611bd3826112d5565b6000828152600a602052604081208054611bec90612da6565b80601f0160208091040260200160405190810160405280929190818152602001828054611c1890612da6565b8015611c655780601f10611c3a57610100808354040283529160200191611c65565b820191906000526020600020905b815481529060010190602001808311611c4857829003601f168201915b505050505090506000611c8360408051602081019091526000815290565b90508051600003611c95575092915050565b815115611cc7578082604051602001611caf929190613089565b60405160208183030381529060405292505050919050565b61112e84611fa7565b60006001600160e01b03198216632483248360e11b148061062857506106288261201a565b6110ec8484848461203f565b6110ec565b611d108282610e01565b61096857611d1d8161216c565b611d2883602061217e565b604051602001611d399291906130b8565b60408051601f198184030181529082905262461bcd60e51b825261075b916004016129cf565b611d688161231a565b6000818152600a602052604090208054611d8190612da6565b1590506109b5576000818152600a602052604081206109b5916128fe565b60606000611dac836123c7565b604080516020808252818301909252919250600091906020820181803683375050509182525060208101929092525090565b6109b5816123ef565b60006001600160a01b0384163b15611edd57604051630a85bd0160e11b81526001600160a01b0385169063150b7a0290611e2b90339089908890889060040161312d565b6020604051808303816000875af1925050508015611e66575060408051601f3d908101601f19168201909252611e639181019061316a565b60015b611ec3573d808015611e94576040519150601f19603f3d011682016040523d82523d6000602084013e611e99565b606091505b508051600003611ebb5760405162461bcd60e51b815260040161075b90612f29565b805181602001fd5b6001600160e01b031916630a85bd0160e11b14905061112e565b506001949350505050565b611ef28383612410565b611eff6000848484611de7565b6107fc5760405162461bcd60e51b815260040161075b90612f29565b60008064e8d4a51000670de0b6b3a764000084601254670de0b6b3a7640000611f449190613187565b611f4e91906131b4565b611f5891906131b4565b611f6291906131c8565b670de0b6b3a764000084601254670de0b6b3a7640000611f829190613187565b611f8c91906131b4565b611f9691906131b4565b611fa09190612e85565b9392505050565b6060611fb2826112d5565b6000611fc960408051602081019091526000815290565b90506000815111611fe95760405180602001604052806000815250611fa0565b80611ff3846125b3565b604051602001612004929190613089565b6040516020818303038152906040529392505050565b60006001600160e01b0319821663780e9d6360e01b1480610628575061062882612646565b60018111156120ae5760405162461bcd60e51b815260206004820152603560248201527f455243373231456e756d657261626c653a20636f6e7365637574697665207472604482015274185b9cd9995c9cc81b9bdd081cdd5c1c1bdc9d1959605a1b606482015260840161075b565b816001600160a01b03851661210a5761210581600880546000838152600960205260408120829055600182018355919091527ff3f7a9fe364faab93b216da50a3214154f22a0a2b415b23a84c8169e8b636ee30155565b61212d565b836001600160a01b0316856001600160a01b03161461212d5761212d8582612696565b6001600160a01b0384166121495761214481612733565b611037565b846001600160a01b0316846001600160a01b0316146110375761103784826127e2565b60606106286001600160a01b03831660145b6060600061218d836002613187565b612198906002612e59565b67ffffffffffffffff8111156121b0576121b0612c12565b6040519080825280601f01601f1916602001820160405280156121da576020820181803683370190505b509050600360fc1b816000815181106121f5576121f5612e2d565b60200101906001600160f81b031916908160001a905350600f60fb1b8160018151811061222457612224612e2d565b60200101906001600160f81b031916908160001a9053506000612248846002613187565b612253906001612e59565b90505b60018111156122cb576f181899199a1a9b1b9c1cb0b131b232b360811b85600f166010811061228757612287612e2d565b1a60f81b82828151811061229d5761229d612e2d565b60200101906001600160f81b031916908160001a90535060049490941c936122c4816131dc565b9050612256565b508315611fa05760405162461bcd60e51b815260206004820181905260248201527f537472696e67733a20686578206c656e67746820696e73756666696369656e74604482015260640161075b565b600061232582610c92565b9050612335816000846001611cf5565b61233e82610c92565b600083815260046020908152604080832080546001600160a01b03199081169091556001600160a01b0385168085526003845282852080546000190190558785526002909352818420805490911690555192935084927fddf252ad1be2c89b69c2b068fc378daa952ba7f163c4a11628f55a4df523b3ef908390a4610968816000846001611d01565b600060ff8216601f81111561062857604051632cd44ac360e21b815260040160405180910390fd5b60006a636f6e736f6c652e6c6f679050600080835160208501845afa505050565b6001600160a01b0382166124665760405162461bcd60e51b815260206004820181905260248201527f4552433732313a206d696e7420746f20746865207a65726f2061646472657373604482015260640161075b565b6000818152600260205260409020546001600160a01b0316156124cb5760405162461bcd60e51b815260206004820152601c60248201527f4552433732313a20746f6b656e20616c7265616479206d696e74656400000000604482015260640161075b565b6124d9600083836001611cf5565b6000818152600260205260409020546001600160a01b03161561253e5760405162461bcd60e51b815260206004820152601c60248201527f4552433732313a20746f6b656e20616c7265616479206d696e74656400000000604482015260640161075b565b6001600160a01b038216600081815260036020908152604080832080546001019055848352600290915280822080546001600160a01b0319168417905551839291907fddf252ad1be2c89b69c2b068fc378daa952ba7f163c4a11628f55a4df523b3ef908290a4610968600083836001611d01565b606060006125c083612826565b600101905060008167ffffffffffffffff8111156125e0576125e0612c12565b6040519080825280601f01601f19166020018201604052801561260a576020820181803683370190505b5090508181016020015b600019016f181899199a1a9b1b9c1cb0b131b232b360811b600a86061a8153600a850494508461261457509392505050565b60006001600160e01b031982166380ac58cd60e01b148061267757506001600160e01b03198216635b5e139f60e01b145b8061062857506301ffc9a760e01b6001600160e01b0319831614610628565b600060016126a384610cf2565b6126ad9190612e85565b600083815260076020526040902054909150808214612700576001600160a01b03841660009081526006602090815260408083208584528252808320548484528184208190558352600790915290208190555b5060009182526007602090815260408084208490556001600160a01b039094168352600681528383209183525290812055565b60085460009061274590600190612e85565b6000838152600960205260408120546008805493945090928490811061276d5761276d612e2d565b90600052602060002001549050806008838154811061278e5761278e612e2d565b60009182526020808320909101929092558281526009909152604080822084905585825281205560088054806127c6576127c66131f3565b6001900381819060005260206000200160009055905550505050565b60006127ed83610cf2565b6001600160a01b039093166000908152600660209081526040808320868452825280832085905593825260079052919091209190915550565b60008072184f03e93ff9f4daa797ed6e38ed64bf6a1f0160401b83106128655772184f03e93ff9f4daa797ed6e38ed64bf6a1f0160401b830492506040015b6d04ee2d6d415b85acef81000000008310612891576d04ee2d6d415b85acef8100000000830492506020015b662386f26fc1000083106128af57662386f26fc10000830492506010015b6305f5e10083106128c7576305f5e100830492506008015b61271083106128db57612710830492506004015b606483106128ed576064830492506002015b600a83106106285760010192915050565b50805461290a90612da6565b6000825580601f1061291a575050565b601f0160209004906000526020600020908101906109b591905b808211156129485760008155600101612934565b5090565b6001600160e01b0319811681146109b557600080fd5b60006020828403121561297457600080fd5b8135611fa08161294c565b60005b8381101561299a578181015183820152602001612982565b50506000910152565b600081518084526129bb81602086016020860161297f565b601f01601f19169290920160200192915050565b602081526000611fa060208301846129a3565b6000602082840312156129f457600080fd5b5035919050565b80356001600160a01b0381168114612a1257600080fd5b919050565b60008060408385031215612a2a57600080fd5b612a33836129fb565b946020939093013593505050565b600080600060608486031215612a5657600080fd5b612a5f846129fb565b9250612a6d602085016129fb565b9150604084013590509250925092565b60008060408385031215612a9057600080fd5b82359150612aa0602084016129fb565b90509250929050565b602080825282518282018190526000919060409081850190868401855b82811015612b1857815180518552868101516001600160a01b03908116888701528682015116868601526060808201519086015260809081015115159085015260a09093019290850190600101612ac6565b5091979650505050505050565b600060208284031215612b3757600080fd5b611fa0826129fb565b60ff60f81b881681526000602060e081840152612b6060e084018a6129a3565b8381036040850152612b72818a6129a3565b606085018990526001600160a01b038816608086015260a0850187905284810360c0860152855180825283870192509083019060005b81811015612bc457835183529284019291840191600101612ba8565b50909c9b505050505050505050505050565b60008060408385031215612be957600080fd5b612bf2836129fb565b915060208301358015158114612c0757600080fd5b809150509250929050565b634e487b7160e01b600052604160045260246000fd5b600067ffffffffffffffff80841115612c4357612c43612c12565b604051601f8501601f19908116603f01168101908282118183101715612c6b57612c6b612c12565b81604052809350858152868686011115612c8457600080fd5b858560208301376000602087830101525050509392505050565b60008060008060808587031215612cb457600080fd5b612cbd856129fb565b9350612ccb602086016129fb565b925060408501359150606085013567ffffffffffffffff811115612cee57600080fd5b8501601f81018713612cff57600080fd5b612d0e87823560208401612c28565b91505092959194509250565b600080600060608486031215612d2f57600080fd5b833567ffffffffffffffff811115612d4657600080fd5b8401601f81018613612d5757600080fd5b612d6686823560208401612c28565b9660208601359650604090950135949350505050565b60008060408385031215612d8f57600080fd5b612d98836129fb565b9150612aa0602084016129fb565b600181811c90821680612dba57607f821691505b602082108103612dda57634e487b7160e01b600052602260045260246000fd5b50919050565b6020808252602d908201527f4552433732313a2063616c6c6572206973206e6f7420746f6b656e206f776e6560408201526c1c881bdc88185c1c1c9bdd9959609a1b606082015260800190565b634e487b7160e01b600052603260045260246000fd5b634e487b7160e01b600052601160045260246000fd5b8082018082111561062857610628612e43565b600060018201612e7e57612e7e612e43565b5060010190565b8181038181111561062857610628612e43565b60208082526025908201527f4552433732313a207472616e736665722066726f6d20696e636f72726563742060408201526437bbb732b960d91b606082015260800190565b604081526000612ef060408301856129a3565b90508260208301529392505050565b604081526000612f1260408301856129a3565b905060018060a01b03831660208301529392505050565b60208082526032908201527f4552433732313a207472616e7366657220746f206e6f6e20455243373231526560408201527131b2b4bb32b91034b6b83632b6b2b73a32b960711b606082015260800190565b601f8211156107fc57600081815260208120601f850160051c81016020861015612fa25750805b601f850160051c820191505b81811015612fc157828155600101612fae565b505050505050565b815167ffffffffffffffff811115612fe357612fe3612c12565b612ff781612ff18454612da6565b84612f7b565b602080601f83116001811461302c57600084156130145750858301515b600019600386901b1c1916600185901b178555612fc1565b600085815260208120601f198616915b8281101561305b5788860151825594840194600190910190840161303c565b50858210156130795787850151600019600388901b60f8161c191681555b5050505050600190811b01905550565b6000835161309b81846020880161297f565b8351908301906130af81836020880161297f565b01949350505050565b7f416363657373436f6e74726f6c3a206163636f756e74200000000000000000008152600083516130f081601785016020880161297f565b7001034b99036b4b9b9b4b733903937b6329607d1b601791840191820152835161312181602884016020880161297f565b01602801949350505050565b6001600160a01b0385811682528416602082015260408101839052608060608201819052600090613160908301846129a3565b9695505050505050565b60006020828403121561317c57600080fd5b8151611fa08161294c565b808202811582820484141761062857610628612e43565b634e487b7160e01b600052601260045260246000fd5b6000826131c3576131c361319e565b500490565b6000826131d7576131d761319e565b500690565b6000816131eb576131eb612e43565b506000190190565b634e487b7160e01b600052603160045260246000fdfea2646970667358221220e461ae5d732e6e33376761d3c071464a8270d972db10d81ff311e7f6ef110edc64736f6c63430008130033",
  "linkReferences": {},
  "deployedLinkReferences": {}
}