{
  "_format": "hh-sol-artifact-1",
  "contractName": "KittyCore",
  "sourceName": "contracts/KittyCore.sol",
  "abi": [
    {
      "inputs": [
        {
          "internalType": "uint256",
          "name": "price",
          "type": "uint256"
        },
        {
          "internalType": "string[]",
          "name": "initialTokenURIs",
          "type": "string[]"
        }
      ],
      "stateMutability": "nonpayable",
      "type": "constructor"
    },
    {
      "inputs": [],
      "name": "InvalidShortString",
      "type": "error"
    },
    {
      "inputs": [
        {
          "internalType": "string",
          "name": "str",
          "type": "string"
        }
      ],
      "name": "StringTooLong",
      "type": "error"
    },
    {
      "anonymous": false,
      "inputs": [
        {
          "indexed": true,
          "internalType": "address",
          "name": "owner",
          "type": "address"
        },
        {
          "indexed": true,
          "internalType": "address",
          "name": "approved",
          "type": "address"
        },
        {
          "indexed": true,
          "internalType": "uint256",
          "name": "tokenId",
          "type": "uint256"
        }
      ],
      "name": "Approval",
      "type": "event"
    },
    {
      "anonymous": false,
      "inputs": [
        {
          "indexed": true,
          "internalType": "address",
          "name": "owner",
          "type": "address"
        },
        {
          "indexed": true,
          "internalType": "address",
          "name": "operator",
          "type": "address"
        },
        {
          "indexed": false,
          "internalType": "bool",
          "name": "approved",
          "type": "bool"
        }
      ],
      "name": "ApprovalForAll",
      "type": "event"
    },
    {
      "anonymous": false,
      "inputs": [
        {
          "indexed": false,
          "internalType": "uint256",
          "name": "_fromTokenId",
          "type": "uint256"
        },
        {
          "indexed": false,
          "internalType": "uint256",
          "name": "_toTokenId",
          "type": "uint256"
        }
      ],
      "name": "BatchMetadataUpdate",
      "type": "event"
    },
    {
      "anonymous": false,
      "inputs": [],
      "name": "EIP712DomainChanged",
      "type": "event"
    },
    {
      "anonymous": false,
      "inputs": [
        {
          "indexed": false,
          "internalType": "uint256",
          "name": "_tokenId",
          "type": "uint256"
        }
      ],
      "name": "MetadataUpdate",
      "type": "event"
    },
    {
      "anonymous": false,
      "inputs": [
        {
          "indexed": true,
          "internalType": "bytes32",
          "name": "role",
          "type": "bytes32"
        },
        {
          "indexed": true,
          "internalType": "bytes32",
          "name": "previousAdminRole",
          "type": "bytes32"
        },
        {
          "indexed": true,
          "internalType": "bytes32",
          "name": "newAdminRole",
          "type": "bytes32"
        }
      ],
      "name": "RoleAdminChanged",
      "type": "event"
    },
    {
      "anonymous": false,
      "inputs": [
        {
          "indexed": true,
          "internalType": "bytes32",
          "name": "role",
          "type": "bytes32"
        },
        {
          "indexed": true,
          "internalType": "address",
          "name": "account",
          "type": "address"
        },
        {
          "indexed": true,
          "internalType": "address",
          "name": "sender",
          "type": "address"
        }
      ],
      "name": "RoleGranted",
      "type": "event"
    },
    {
      "anonymous": false,
      "inputs": [
        {
          "indexed": true,
          "internalType": "bytes32",
          "name": "role",
          "type": "bytes32"
        },
        {
          "indexed": true,
          "internalType": "address",
          "name": "account",
          "type": "address"
        },
        {
          "indexed": true,
          "internalType": "address",
          "name": "sender",
          "type": "address"
        }
      ],
      "name": "RoleRevoked",
      "type": "event"
    },
    {
      "anonymous": false,
      "inputs": [
        {
          "indexed": true,
          "internalType": "uint256",
          "name": "tokenId",
          "type": "uint256"
        },
        {
          "indexed": false,
          "internalType": "address",
          "name": "owner",
          "type": "address"
        },
        {
          "indexed": false,
          "internalType": "address",
          "name": "seller",
          "type": "address"
        },
        {
          "indexed": false,
          "internalType": "uint256",
          "name": "price",
          "type": "uint256"
        },
        {
          "indexed": false,
          "internalType": "bool",
          "name": "currentlyListed",
          "type": "bool"
        }
      ],
      "name": "TokenListedSuccess",
      "type": "event"
    },
    {
      "anonymous": false,
      "inputs": [
        {
          "indexed": true,
          "internalType": "address",
          "name": "from",
          "type": "address"
        },
        {
          "indexed": true,
          "internalType": "address",
          "name": "to",
          "type": "address"
        },
        {
          "indexed": true,
          "internalType": "uint256",
          "name": "tokenId",
          "type": "uint256"
        }
      ],
      "name": "Transfer",
      "type": "event"
    },
    {
      "inputs": [
        {
          "internalType": "uint256",
          "name": "_dadId",
          "type": "uint256"
        },
        {
          "internalType": "uint256",
          "name": "_mumId",
          "type": "uint256"
        },
        {
          "internalType": "uint256",
          "name": "dadGenes",
          "type": "uint256"
        },
        {
          "internalType": "uint256",
          "name": "momGenes",
          "type": "uint256"
        },
        {
          "internalType": "uint256",
          "name": "dadGeneration",
          "type": "uint256"
        },
        {
          "internalType": "uint256",
          "name": "momGeneration",
          "type": "uint256"
        }
      ],
      "name": "Breeding",
      "outputs": [
        {
          "components": [
            {
              "internalType": "uint256",
              "name": "genes",
              "type": "uint256"
            },
            {
              "internalType": "uint256",
              "name": "birthTime",
              "type": "uint256"
            },
            {
              "internalType": "uint256",
              "name": "mumId",
              "type": "uint256"
            },
            {
              "internalType": "uint256",
              "name": "dadId",
              "type": "uint256"
            },
            {
              "internalType": "uint256",
              "name": "generation",
              "type": "uint256"
            }
          ],
          "internalType": "struct KittyCore.Kitty",
          "name": "",
          "type": "tuple"
        }
      ],
      "stateMutability": "view",
      "type": "function"
    },
    {
      "inputs": [],
      "name": "DEFAULT_ADMIN_ROLE",
      "outputs": [
        {
          "internalType": "bytes32",
          "name": "",
          "type": "bytes32"
        }
      ],
      "stateMutability": "view",
      "type": "function"
    },
    {
      "inputs": [],
      "name": "MINTER_ROLE",
      "outputs": [
        {
          "internalType": "bytes32",
          "name": "",
          "type": "bytes32"
        }
      ],
      "stateMutability": "view",
      "type": "function"
    },
    {
      "inputs": [],
      "name": "PAUSER_ROLE",
      "outputs": [
        {
          "internalType": "bytes32",
          "name": "",
          "type": "bytes32"
        }
      ],
      "stateMutability": "view",
      "type": "function"
    },
    {
      "inputs": [
        {
          "internalType": "address",
          "name": "to",
          "type": "address"
        },
        {
          "internalType": "uint256",
          "name": "tokenId",
          "type": "uint256"
        }
      ],
      "name": "approve",
      "outputs": [],
      "stateMutability": "nonpayable",
      "type": "function"
    },
    {
      "inputs": [
        {
          "internalType": "address",
          "name": "owner",
          "type": "address"
        }
      ],
      "name": "balanceOf",
      "outputs": [
        {
          "internalType": "uint256",
          "name": "",
          "type": "uint256"
        }
      ],
      "stateMutability": "view",
      "type": "function"
    },
    {
      "inputs": [
        {
          "internalType": "uint256",
          "name": "tokenId",
          "type": "uint256"
        }
      ],
      "name": "burn",
      "outputs": [],
      "stateMutability": "nonpayable",
      "type": "function"
    },
    {
      "inputs": [
        {
          "internalType": "string",
          "name": "_tokenURI",
          "type": "string"
        },
        {
          "internalType": "uint256",
          "name": "price",
          "type": "uint256"
        },
        {
          "internalType": "uint256",
          "name": "generation",
          "type": "uint256"
        }
      ],
      "name": "createToken",
      "outputs": [
        {
          "internalType": "uint256",
          "name": "",
          "type": "uint256"
        }
      ],
      "stateMutability": "payable",
      "type": "function"
    },
    {
      "inputs": [],
      "name": "eip712Domain",
      "outputs": [
        {
          "internalType": "bytes1",
          "name": "fields",
          "type": "bytes1"
        },
        {
          "internalType": "string",
          "name": "name",
          "type": "string"
        },
        {
          "internalType": "string",
          "name": "version",
          "type": "string"
        },
        {
          "internalType": "uint256",
          "name": "chainId",
          "type": "uint256"
        },
        {
          "internalType": "address",
          "name": "verifyingContract",
          "type": "address"
        },
        {
          "internalType": "bytes32",
          "name": "salt",
          "type": "bytes32"
        },
        {
          "internalType": "uint256[]",
          "name": "extensions",
          "type": "uint256[]"
        }
      ],
      "stateMutability": "view",
      "type": "function"
    },
    {
      "inputs": [
        {
          "internalType": "uint256",
          "name": "tokenId",
          "type": "uint256"
        }
      ],
      "name": "executeSale",
      "outputs": [],
      "stateMutability": "payable",
      "type": "function"
    },
    {
      "inputs": [],
      "name": "getAllNFTs",
      "outputs": [
        {
          "components": [
            {
              "internalType": "uint256",
              "name": "tokenId",
              "type": "uint256"
            },
            {
              "internalType": "address payable",
              "name": "owner",
              "type": "address"
            },
            {
              "internalType": "address payable",
              "name": "seller",
              "type": "address"
            },
            {
              "internalType": "uint256",
              "name": "price",
              "type": "uint256"
            },
            {
              "internalType": "bool",
              "name": "currentlyListed",
              "type": "bool"
            }
          ],
          "internalType": "struct KittyContract.ListedToken[]",
          "name": "",
          "type": "tuple[]"
        }
      ],
      "stateMutability": "view",
      "type": "function"
    },
    {
      "inputs": [
        {
          "internalType": "uint256",
          "name": "tokenId",
          "type": "uint256"
        }
      ],
      "name": "getApproved",
      "outputs": [
        {
          "internalType": "address",
          "name": "",
          "type": "address"
        }
      ],
      "stateMutability": "view",
      "type": "function"
    },
    {
      "inputs": [],
      "name": "getCurrentToken",
      "outputs": [
        {
          "internalType": "uint256",
          "name": "",
          "type": "uint256"
        }
      ],
      "stateMutability": "view",
      "type": "function"
    },
    {
      "inputs": [],
      "name": "getGenerationLimit",
      "outputs": [
        {
          "internalType": "uint256",
          "name": "",
          "type": "uint256"
        }
      ],
      "stateMutability": "view",
      "type": "function"
    },
    {
      "inputs": [],
      "name": "getLatestIdToListedToken",
      "outputs": [
        {
          "components": [
            {
              "internalType": "uint256",
              "name": "tokenId",
              "type": "uint256"
            },
            {
              "internalType": "address payable",
              "name": "owner",
              "type": "address"
            },
            {
              "internalType": "address payable",
              "name": "seller",
              "type": "address"
            },
            {
              "internalType": "uint256",
              "name": "price",
              "type": "uint256"
            },
            {
              "internalType": "bool",
              "name": "currentlyListed",
              "type": "bool"
            }
          ],
          "internalType": "struct KittyContract.ListedToken",
          "name": "",
          "type": "tuple"
        }
      ],
      "stateMutability": "view",
      "type": "function"
    },
    {
      "inputs": [],
      "name": "getListPrice",
      "outputs": [
        {
          "internalType": "uint256",
          "name": "",
          "type": "uint256"
        }
      ],
      "stateMutability": "view",
      "type": "function"
    },
    {
      "inputs": [
        {
          "internalType": "uint256",
          "name": "tokenId",
          "type": "uint256"
        }
      ],
      "name": "getListedTokenForId",
      "outputs": [
        {
          "components": [
            {
              "internalType": "uint256",
              "name": "tokenId",
              "type": "uint256"
            },
            {
              "internalType": "address payable",
              "name": "owner",
              "type": "address"
            },
            {
              "internalType": "address payable",
              "name": "seller",
              "type": "address"
            },
            {
              "internalType": "uint256",
              "name": "price",
              "type": "uint256"
            },
            {
              "internalType": "bool",
              "name": "currentlyListed",
              "type": "bool"
            }
          ],
          "internalType": "struct KittyContract.ListedToken",
          "name": "",
          "type": "tuple"
        }
      ],
      "stateMutability": "view",
      "type": "function"
    },
    {
      "inputs": [],
      "name": "getMyNFTs",
      "outputs": [
        {
          "components": [
            {
              "internalType": "uint256",
              "name": "tokenId",
              "type": "uint256"
            },
            {
              "internalType": "address payable",
              "name": "owner",
              "type": "address"
            },
            {
              "internalType": "address payable",
              "name": "seller",
              "type": "address"
            },
            {
              "internalType": "uint256",
              "name": "price",
              "type": "uint256"
            },
            {
              "internalType": "bool",
              "name": "currentlyListed",
              "type": "bool"
            }
          ],
          "internalType": "struct KittyContract.ListedToken[]",
          "name": "",
          "type": "tuple[]"
        }
      ],
      "stateMutability": "view",
      "type": "function"
    },
    {
      "inputs": [
        {
          "internalType": "uint256",
          "name": "nonce",
          "type": "uint256"
        }
      ],
      "name": "getRandomNumber",
      "outputs": [
        {
          "internalType": "uint256",
          "name": "",
          "type": "uint256"
        }
      ],
      "stateMutability": "view",
      "type": "function"
    },
    {
      "inputs": [
        {
          "internalType": "bytes32",
          "name": "role",
          "type": "bytes32"
        }
      ],
      "name": "getRoleAdmin",
      "outputs": [
        {
          "internalType": "bytes32",
          "name": "",
          "type": "bytes32"
        }
      ],
      "stateMutability": "view",
      "type": "function"
    },
    {
      "inputs": [
        {
          "internalType": "bytes32",
          "name": "role",
          "type": "bytes32"
        },
        {
          "internalType": "address",
          "name": "account",
          "type": "address"
        }
      ],
      "name": "grantRole",
      "outputs": [],
      "stateMutability": "nonpayable",
      "type": "function"
    },
    {
      "inputs": [
        {
          "internalType": "bytes32",
          "name": "role",
          "type": "bytes32"
        },
        {
          "internalType": "address",
          "name": "account",
          "type": "address"
        }
      ],
      "name": "hasRole",
      "outputs": [
        {
          "internalType": "bool",
          "name": "",
          "type": "bool"
        }
      ],
      "stateMutability": "view",
      "type": "function"
    },
    {
      "inputs": [
        {
          "internalType": "address",
          "name": "owner",
          "type": "address"
        },
        {
          "internalType": "address",
          "name": "operator",
          "type": "address"
        }
      ],
      "name": "isApprovedForAll",
      "outputs": [
        {
          "internalType": "bool",
          "name": "",
          "type": "bool"
        }
      ],
      "stateMutability": "view",
      "type": "function"
    },
    {
      "inputs": [],
      "name": "name",
      "outputs": [
        {
          "internalType": "string",
          "name": "",
          "type": "string"
        }
      ],
      "stateMutability": "view",
      "type": "function"
    },
    {
      "inputs": [
        {
          "internalType": "uint256",
          "name": "tokenId",
          "type": "uint256"
        }
      ],
      "name": "ownerOf",
      "outputs": [
        {
          "internalType": "address",
          "name": "",
          "type": "address"
        }
      ],
      "stateMutability": "view",
      "type": "function"
    },
    {
      "inputs": [
        {
          "internalType": "bytes32",
          "name": "role",
          "type": "bytes32"
        },
        {
          "internalType": "address",
          "name": "account",
          "type": "address"
        }
      ],
      "name": "renounceRole",
      "outputs": [],
      "stateMutability": "nonpayable",
      "type": "function"
    },
    {
      "inputs": [
        {
          "internalType": "bytes32",
          "name": "role",
          "type": "bytes32"
        },
        {
          "internalType": "address",
          "name": "account",
          "type": "address"
        }
      ],
      "name": "revokeRole",
      "outputs": [],
      "stateMutability": "nonpayable",
      "type": "function"
    },
    {
      "inputs": [
        {
          "internalType": "address",
          "name": "from",
          "type": "address"
        },
        {
          "internalType": "address",
          "name": "to",
          "type": "address"
        },
        {
          "internalType": "uint256",
          "name": "tokenId",
          "type": "uint256"
        }
      ],
      "name": "safeTransferFrom",
      "outputs": [],
      "stateMutability": "nonpayable",
      "type": "function"
    },
    {
      "inputs": [
        {
          "internalType": "address",
          "name": "from",
          "type": "address"
        },
        {
          "internalType": "address",
          "name": "to",
          "type": "address"
        },
        {
          "internalType": "uint256",
          "name": "tokenId",
          "type": "uint256"
        },
        {
          "internalType": "bytes",
          "name": "data",
          "type": "bytes"
        }
      ],
      "name": "safeTransferFrom",
      "outputs": [],
      "stateMutability": "nonpayable",
      "type": "function"
    },
    {
      "inputs": [
        {
          "internalType": "address",
          "name": "operator",
          "type": "address"
        },
        {
          "internalType": "bool",
          "name": "approved",
          "type": "bool"
        }
      ],
      "name": "setApprovalForAll",
      "outputs": [],
      "stateMutability": "nonpayable",
      "type": "function"
    },
    {
      "inputs": [
        {
          "internalType": "bytes4",
          "name": "interfaceId",
          "type": "bytes4"
        }
      ],
      "name": "supportsInterface",
      "outputs": [
        {
          "internalType": "bool",
          "name": "",
          "type": "bool"
        }
      ],
      "stateMutability": "view",
      "type": "function"
    },
    {
      "inputs": [],
      "name": "symbol",
      "outputs": [
        {
          "internalType": "string",
          "name": "",
          "type": "string"
        }
      ],
      "stateMutability": "view",
      "type": "function"
    },
    {
      "inputs": [
        {
          "internalType": "uint256",
          "name": "index",
          "type": "uint256"
        }
      ],
      "name": "tokenByIndex",
      "outputs": [
        {
          "internalType": "uint256",
          "name": "",
          "type": "uint256"
        }
      ],
      "stateMutability": "view",
      "type": "function"
    },
    {
      "inputs": [
        {
          "internalType": "address",
          "name": "owner",
          "type": "address"
        },
        {
          "internalType": "uint256",
          "name": "index",
          "type": "uint256"
        }
      ],
      "name": "tokenOfOwnerByIndex",
      "outputs": [
        {
          "internalType": "uint256",
          "name": "",
          "type": "uint256"
        }
      ],
      "stateMutability": "view",
      "type": "function"
    },
    {
      "inputs": [
        {
          "internalType": "uint256",
          "name": "tokenId",
          "type": "uint256"
        }
      ],
      "name": "tokenURI",
      "outputs": [
        {
          "internalType": "string",
          "name": "",
          "type": "string"
        }
      ],
      "stateMutability": "view",
      "type": "function"
    },
    {
      "inputs": [],
      "name": "totalSupply",
      "outputs": [
        {
          "internalType": "uint256",
          "name": "",
          "type": "uint256"
        }
      ],
      "stateMutability": "view",
      "type": "function"
    },
    {
      "inputs": [
        {
          "internalType": "address",
          "name": "from",
          "type": "address"
        },
        {
          "internalType": "address",
          "name": "to",
          "type": "address"
        },
        {
          "internalType": "uint256",
          "name": "tokenId",
          "type": "uint256"
        }
      ],
      "name": "transferFrom",
      "outputs": [],
      "stateMutability": "nonpayable",
      "type": "function"
    },
    {
      "inputs": [
        {
          "internalType": "uint256",
          "name": "_limit",
          "type": "uint256"
        }
      ],
      "name": "updateGenerationLimit",
      "outputs": [],
      "stateMutability": "payable",
      "type": "function"
    },
    {
      "inputs": [
        {
          "internalType": "uint256",
          "name": "_listPrice",
          "type": "uint256"
        }
      ],
      "name": "updateListPrice",
      "outputs": [],
      "stateMutability": "payable",
      "type": "function"
    }
  ],
  "bytecode": "0x61016060405266038d7ea4c68000601255600a6013553480156200002257600080fd5b50604051620050983803806200509883398101604081905262000045916200124b565b604080518082018252600d8082526c12da5d1d1e50dbdb9d1c9858dd609a1b60208084018290528451808601865260018152603160f81b8183015285518087018752938452838201929092528451808601909552600385526212d25560ea1b9085015291926000620000b8838262001410565b506001620000c7828262001410565b50620000d99150839050600c6200020c565b61012052620000ea81600d6200020c565b61014052815160208084019190912060e052815190820120610100524660a0526200017860e05161010051604080517f8b73c3c69bb8fe3d512ecc4cf759cc79239f7b179b0ffacaa9a75d522b39400f60208201529081019290925260608201524660808201523060a082015260009060c00160405160208183030381529060405280519060200120905090565b60805250503060c0526200018e60003362000245565b620001ba7f65d7a28e3265b37a6474929f336521b332c1681b933f6cb9f3376673440d862a3362000245565b620001e67f9f2df0fed2c77648de5860a4cc508cd0818c85b8b8a1ab4ceeef8d981c8956a63362000245565b601180546001600160a01b03191633179055620002048282620002ea565b505062001681565b60006020835110156200022c5762000224836200046e565b90506200023f565b8162000239848262001410565b5060ff90505b92915050565b6000828152600b602090815260408083206001600160a01b038516845290915290205460ff16620002e6576000828152600b602090815260408083206001600160a01b03851684529091529020805460ff19166001179055620002a53390565b6001600160a01b0316816001600160a01b0316837f2f8788117e7eff1d82e926ec794901d17c78024a50270940304540a733656f0d60405160405180910390a45b5050565b60006200030083670de0b6b3a7640000620014f2565b905060005b825181101562000468576200033f8382815181106200032857620003286200150c565b6020026020010151836000620004ba60201b60201c565b506040805160a080820183526000808352602080840182905283850182905260608085018390526080948501839052600190925260148152845192830185527fb6c61a840592cc84133e4b25bd509abf4659307c57b160799b38490a5aa48f2c5483527fb6c61a840592cc84133e4b25bd509abf4659307c57b160799b38490a5aa48f2d546001600160a01b03908116918401919091527fb6c61a840592cc84133e4b25bd509abf4659307c57b160799b38490a5aa48f2e5416938201939093527fb6c61a840592cc84133e4b25bd509abf4659307c57b160799b38490a5aa48f2f54928101929092527fb6c61a840592cc84133e4b25bd509abf4659307c57b160799b38490a5aa48f305460ff161515910152806200045f8162001522565b91505062000305565b50505050565b600080829050601f81511115620004a5578260405163305a27a960e01b81526004016200049c91906200156c565b60405180910390fd5b8051620004b28262001581565b179392505050565b6000620004cb600f80546001019055565b6000620004d7600f5490565b9050620004e5338262000506565b620004f1818662000528565b620004fe818585620005f7565b949350505050565b620002e68282604051806020016040528060008152506200081760201b60201c565b6000828152600260205260409020546001600160a01b0316620005a55760405162461bcd60e51b815260206004820152602e60248201527f45524337323155524953746f726167653a2055524920736574206f66206e6f6e60448201526d32bc34b9ba32b73a103a37b5b2b760911b60648201526084016200049c565b6000828152600a60205260409020620005bf828262001410565b506040518281527ff8e1a15aba9398e019f0b49df1a4fde98ee17ae345cb5f6b5e2c27f5033e8ce79060200160405180910390a15050565b8015620006655762000609816200088f565b3414620006655760405162461bcd60e51b815260206004820152602360248201527f486f706566756c6c792073656e64696e672074686520636f727265637420707260448201526269636560e81b60648201526084016200049c565b60008211620006c25760405162461bcd60e51b815260206004820152602260248201527f4d616b652073757265207468652070726963652069736e2774206e6567617469604482015261766560f01b60648201526084016200049c565b6000811180620006dc57506011546001600160a01b031633145b6200072a5760405162461bcd60e51b815260206004820152601e60248201527f4f6e6c79204f776e6572206372656174652067656e65726174696f6e2030000060448201526064016200049c565b6040805160a081018252848152306020808301828152338486018181526060860189815260016080880181815260008d815260149097529890952096518755925193860180546001600160a01b039586166001600160a01b03199182161790915590516002870180549190951691161790925551600384015592516004909201805492151560ff1990931692909217909155620007c99190856200092b565b604080513081523360208201529081018390526001606082015283907f9339409317fd01fabff48b703019016f49159bacc801ae872d2ca637d226e4c09060800160405180910390a2505050565b62000823838362000afb565b62000832600084848462000c97565b6200088a5760405162461bcd60e51b815260206004820152603260248201526000805160206200503883398151915260448201527131b2b4bb32b91034b6b83632b6b2b73a32b960711b60648201526084016200049c565b505050565b60008064e8d4a51000670de0b6b3a764000084601254670de0b6b3a7640000620008ba9190620014f2565b620008c69190620015bc565b620008d29190620015bc565b620008de9190620015d3565b670de0b6b3a764000084601254670de0b6b3a7640000620009009190620014f2565b6200090c9190620015bc565b620009189190620015bc565b620009249190620015ea565b9392505050565b6001600160a01b038316620009408262000dde565b6001600160a01b031614620009955760405162461bcd60e51b815260206004820152602560248201526000805160206200505883398151915260448201526437bbb732b960d91b60648201526084016200049c565b6001600160a01b038216620009f95760405162461bcd60e51b8152602060048201526024808201527f4552433732313a207472616e7366657220746f20746865207a65726f206164646044820152637265737360e01b60648201526084016200049c565b62000a08838383600162000e45565b6001600160a01b03831662000a1d8262000dde565b6001600160a01b03161462000a725760405162461bcd60e51b815260206004820152602560248201526000805160206200505883398151915260448201526437bbb732b960d91b60648201526084016200049c565b600081815260046020908152604080832080546001600160a01b03199081169091556001600160a01b0387811680865260038552838620805460001901905590871680865283862080546001019055868652600290945282852080549092168417909155905184936000805160206200507883398151915291a46200088a838383600162000e53565b6001600160a01b03821662000b535760405162461bcd60e51b815260206004820181905260248201527f4552433732313a206d696e7420746f20746865207a65726f206164647265737360448201526064016200049c565b6000818152600260205260409020546001600160a01b03161562000bba5760405162461bcd60e51b815260206004820152601c60248201527f4552433732313a20746f6b656e20616c7265616479206d696e7465640000000060448201526064016200049c565b62000bca60008383600162000e45565b6000818152600260205260409020546001600160a01b03161562000c315760405162461bcd60e51b815260206004820152601c60248201527f4552433732313a20746f6b656e20616c7265616479206d696e7465640000000060448201526064016200049c565b6001600160a01b038216600081815260036020908152604080832080546001019055848352600290915280822080546001600160a01b03191684179055518392919060008051602062005078833981519152908290a4620002e660008383600162000e53565b60006001600160a01b0384163b1562000dd357604051630a85bd0160e11b81526001600160a01b0385169063150b7a029062000cde90339089908890889060040162001600565b6020604051808303816000875af192505050801562000d1c575060408051601f3d908101601f1916820190925262000d19918101906200163f565b60015b62000db8573d80801562000d4d576040519150601f19603f3d011682016040523d82523d6000602084013e62000d52565b606091505b50805160000362000db05760405162461bcd60e51b815260206004820152603260248201526000805160206200503883398151915260448201527131b2b4bb32b91034b6b83632b6b2b73a32b960711b60648201526084016200049c565b805181602001fd5b6001600160e01b031916630a85bd0160e11b149050620004fe565b506001949350505050565b6000818152600260205260408120546001600160a01b0316806200023f5760405162461bcd60e51b815260206004820152601860248201527f4552433732313a20696e76616c696420746f6b656e204944000000000000000060448201526064016200049c565b620004688484848462000e67565b62000468848484846001600160e01b038516565b600181111562000ee05760405162461bcd60e51b815260206004820152603560248201527f455243373231456e756d657261626c653a20636f6e736563757469766520747260448201527f616e7366657273206e6f7420737570706f72746564000000000000000000000060648201526084016200049c565b816001600160a01b03851662000f3f5762000f3981600880546000838152600960205260408120829055600182018355919091527ff3f7a9fe364faab93b216da50a3214154f22a0a2b415b23a84c8169e8b636ee30155565b62000f65565b836001600160a01b0316856001600160a01b03161462000f655762000f65858262000fb2565b6001600160a01b03841662000f855762000f7f8162001054565b62000fab565b846001600160a01b0316846001600160a01b03161462000fab5762000fab84826200110e565b5050505050565b6000600162000fc18462001154565b62000fcd9190620015ea565b60008381526007602052604090205490915080821462001021576001600160a01b03841660009081526006602090815260408083208584528252808320548484528184208190558352600790915290208190555b5060009182526007602090815260408084208490556001600160a01b039094168352600681528383209183525290812055565b6008546000906200106890600190620015ea565b600083815260096020526040812054600880549394509092849081106200109357620010936200150c565b906000526020600020015490508060088381548110620010b757620010b76200150c565b6000918252602080832090910192909255828152600990915260408082208490558582528120556008805480620010f257620010f26200166b565b6001900381819060005260206000200160009055905550505050565b60006200111b8362001154565b6001600160a01b039093166000908152600660209081526040808320868452825280832085905593825260079052919091209190915550565b60006001600160a01b038216620011c05760405162461bcd60e51b815260206004820152602960248201527f4552433732313a2061646472657373207a65726f206973206e6f7420612076616044820152683634b21037bbb732b960b91b60648201526084016200049c565b506001600160a01b031660009081526003602052604090205490565b634e487b7160e01b600052604160045260246000fd5b604051601f8201601f191681016001600160401b03811182821017156200121d576200121d620011dc565b604052919050565b60005b838110156200124257818101518382015260200162001228565b50506000910152565b60008060408084860312156200126057600080fd5b8351602080860151919450906001600160401b03808211156200128257600080fd5b8187019150601f88818401126200129857600080fd5b825182811115620012ad57620012ad620011dc565b8060051b620012be868201620011f2565b918252848101860191868101908c841115620012d957600080fd5b87870192505b838310156200136f57825186811115620012f95760008081fd5b8701603f81018e136200130c5760008081fd5b8881015187811115620013235762001323620011dc565b62001336818801601f19168b01620011f2565b8181528f8c8385010111156200134c5760008081fd5b6200135d828c83018e860162001225565b845250509187019190870190620012df565b8099505050505050505050509250929050565b600181811c908216806200139757607f821691505b602082108103620013b857634e487b7160e01b600052602260045260246000fd5b50919050565b601f8211156200088a57600081815260208120601f850160051c81016020861015620013e75750805b601f850160051c820191505b818110156200140857828155600101620013f3565b505050505050565b81516001600160401b038111156200142c576200142c620011dc565b62001444816200143d845462001382565b84620013be565b602080601f8311600181146200147c5760008415620014635750858301515b600019600386901b1c1916600185901b17855562001408565b600085815260208120601f198616915b82811015620014ad578886015182559484019460019091019084016200148c565b5085821015620014cc5787850151600019600388901b60f8161c191681555b5050505050600190811b01905550565b634e487b7160e01b600052601160045260246000fd5b80820281158282048414176200023f576200023f620014dc565b634e487b7160e01b600052603260045260246000fd5b600060018201620015375762001537620014dc565b5060010190565b600081518084526200155881602086016020860162001225565b601f01601f19169290920160200192915050565b6020815260006200092460208301846200153e565b80516020808301519190811015620013b85760001960209190910360031b1b16919050565b634e487b7160e01b600052601260045260246000fd5b600082620015ce57620015ce620015a6565b500490565b600082620015e557620015e5620015a6565b500690565b818103818111156200023f576200023f620014dc565b6001600160a01b038581168252841660208201526040810183905260806060820181905260009062001635908301846200153e565b9695505050505050565b6000602082840312156200165257600080fd5b81516001600160e01b0319811681146200092457600080fd5b634e487b7160e01b600052603160045260246000fd5b60805160a05160c05160e05161010051610120516101405161396b620016cd6000396000611283015260006112580152600050506000505060005050600050506000505061396b6000f3fe6080604052600436106102305760003560e01c806384b0196e1161012e578063bec2a7c5116100ab578063d547741f1161006f578063d547741f146106b7578063e0391b09146106d7578063e63ab1e9146106ec578063e985e9c514610720578063ef2d17461461076957600080fd5b8063bec2a7c514610628578063c322579c1461063b578063c87b56dd1461064e578063d1a88ae51461066e578063d53913931461068357600080fd5b8063a217fddf116100f2578063a217fddf146105a0578063a22cb465146105b5578063adc01b12146105d5578063b37217a4146105e8578063b88d4fde1461060857600080fd5b806384b0196e146105035780638e2645901461052b57806391d148541461055857806395d89b41146105785780639b1225c41461058d57600080fd5b806336568abe116101bc578063629cb2e411610180578063629cb2e41461042a5780636352211e1461044c57806368f1945f1461046c5780636bdb142e1461048157806370a08231146104e357600080fd5b806336568abe1461039557806342842e0e146103b557806342966c68146103d557806345643e9b146103f55780634f6ccce71461040a57600080fd5b806318160ddd1161020357806318160ddd146102e657806323b872dd14610305578063248a9ca3146103255780632f2ff15d146103555780632f745c591461037557600080fd5b806301ffc9a71461023557806306fdde031461026a578063081812fc1461028c578063095ea7b3146102c4575b600080fd5b34801561024157600080fd5b5061025561025036600461302b565b61077e565b60405190151581526020015b60405180910390f35b34801561027657600080fd5b5061027f61078f565b6040516102619190613098565b34801561029857600080fd5b506102ac6102a73660046130ab565b610821565b6040516001600160a01b039091168152602001610261565b3480156102d057600080fd5b506102e46102df3660046130e0565b610848565b005b3480156102f257600080fd5b506008545b604051908152602001610261565b34801561031157600080fd5b506102e461032036600461310a565b610962565b34801561033157600080fd5b506102f76103403660046130ab565b6000908152600b602052604090206001015490565b34801561036157600080fd5b506102e4610370366004613146565b610994565b34801561038157600080fd5b506102f76103903660046130e0565b6109b9565b3480156103a157600080fd5b506102e46103b0366004613146565b610a4f565b3480156103c157600080fd5b506102e46103d036600461310a565b610acd565b3480156103e157600080fd5b506102e46103f03660046130ab565b610ae8565b34801561040157600080fd5b506013546102f7565b34801561041657600080fd5b506102f76104253660046130ab565b610b19565b34801561043657600080fd5b5061043f610bac565b60405161026191906131b2565b34801561045857600080fd5b506102ac6104673660046130ab565b610dd3565b34801561047857600080fd5b506012546102f7565b34801561048d57600080fd5b506104a161049c366004613200565b610e33565b6040516102619190600060a082019050825182526020830151602083015260408301516040830152606083015160608301526080830151608083015292915050565b3480156104ef57600080fd5b506102f76104fe366004613243565b6111c4565b34801561050f57600080fd5b5061051861124a565b604051610261979695949392919061325e565b34801561053757600080fd5b5061054b6105463660046130ab565b6112d3565b60405161026191906132f4565b34801561056457600080fd5b50610255610573366004613146565b61133d565b34801561058457600080fd5b5061027f611368565b6102e461059b3660046130ab565b611377565b3480156105ac57600080fd5b506102f7600081565b3480156105c157600080fd5b506102e46105d0366004613302565b61157a565b6102e46105e33660046130ab565b611585565b3480156105f457600080fd5b506102f76106033660046130ab565b6115f3565b34801561061457600080fd5b506102e46106233660046133ca565b611664565b6102f7610636366004613446565b61169c565b6102e46106493660046130ab565b6116e0565b34801561065a57600080fd5b5061027f6106693660046130ab565b61174b565b34801561067a57600080fd5b5061054b611756565b34801561068f57600080fd5b506102f77f9f2df0fed2c77648de5860a4cc508cd0818c85b8b8a1ab4ceeef8d981c8956a681565b3480156106c357600080fd5b506102e46106d2366004613146565b6117cd565b3480156106e357600080fd5b5061043f6117f2565b3480156106f857600080fd5b506102f77f65d7a28e3265b37a6474929f336521b332c1681b933f6cb9f3376673440d862a81565b34801561072c57600080fd5b5061025561073b3660046134a8565b6001600160a01b03918216600090815260056020908152604080832093909416825291909152205460ff1690565b34801561077557600080fd5b506102f761191c565b60006107898261192c565b92915050565b60606000805461079e906134d2565b80601f01602080910402602001604051908101604052809291908181526020018280546107ca906134d2565b80156108175780601f106107ec57610100808354040283529160200191610817565b820191906000526020600020905b8154815290600101906020018083116107fa57829003601f168201915b5050505050905090565b600061082c82611951565b506000908152600460205260409020546001600160a01b031690565b600061085382610dd3565b9050806001600160a01b0316836001600160a01b0316036108c55760405162461bcd60e51b815260206004820152602160248201527f4552433732313a20617070726f76616c20746f2063757272656e74206f776e656044820152603960f91b60648201526084015b60405180910390fd5b336001600160a01b03821614806108e157506108e1813361073b565b6109535760405162461bcd60e51b815260206004820152603d60248201527f4552433732313a20617070726f76652063616c6c6572206973206e6f7420746f60448201527f6b656e206f776e6572206f7220617070726f76656420666f7220616c6c00000060648201526084016108bc565b61095d83836119b0565b505050565b61096d335b82611a1e565b6109895760405162461bcd60e51b81526004016108bc9061350c565b61095d838383611a9c565b6000828152600b60205260409020600101546109af81611c15565b61095d8383611c1f565b60006109c4836111c4565b8210610a265760405162461bcd60e51b815260206004820152602b60248201527f455243373231456e756d657261626c653a206f776e657220696e646578206f7560448201526a74206f6620626f756e647360a81b60648201526084016108bc565b506001600160a01b03919091166000908152600660209081526040808320938352929052205490565b6001600160a01b0381163314610abf5760405162461bcd60e51b815260206004820152602f60248201527f416363657373436f6e74726f6c3a2063616e206f6e6c792072656e6f756e636560448201526e103937b632b9903337b91039b2b63360891b60648201526084016108bc565b610ac98282611ca5565b5050565b61095d83838360405180602001604052806000815250611664565b610af133610967565b610b0d5760405162461bcd60e51b81526004016108bc9061350c565b610b1681611d0c565b50565b6000610b2460085490565b8210610b875760405162461bcd60e51b815260206004820152602c60248201527f455243373231456e756d657261626c653a20676c6f62616c20696e646578206f60448201526b7574206f6620626f756e647360a01b60648201526084016108bc565b60088281548110610b9a57610b9a613559565b90600052602060002001549050919050565b60606000610bb9600f5490565b905060008080805b84811015610c51573360146000610bd9846001613585565b81526020810191909152604001600020600101546001600160a01b03161480610c2c57503360146000610c0d846001613585565b81526020810191909152604001600020600201546001600160a01b0316145b15610c3f57610c3c600185613585565b93505b80610c4981613598565b915050610bc1565b5060008367ffffffffffffffff811115610c6d57610c6d61333e565b604051908082528060200260200182016040528015610ca657816020015b610c93612f7a565b815260200190600190039081610c8b5790505b50905060005b85811015610dc9573360146000610cc4846001613585565b81526020810191909152604001600020600101546001600160a01b03161480610d1757503360146000610cf8846001613585565b81526020810191909152604001600020600201546001600160a01b0316145b15610db757610d27816001613585565b600081815260146020908152604091829020825160a0810184528154815260018201546001600160a01b039081169382019390935260028201549092169282019290925260038201546060820152600482015460ff161515608082015284519295509091849087908110610d9d57610d9d613559565b6020908102919091010152610db3600186613585565b9450505b80610dc181613598565b915050610cac565b5095945050505050565b6000818152600260205260408120546001600160a01b0316806107895760405162461bcd60e51b8152602060048201526018602482015277115490cdcc8c4e881a5b9d985b1a59081d1bdad95b88125160421b60448201526064016108bc565b610e656040518060a0016040528060008152602001600081526020016000815260200160008152602001600081525090565b6000878152601460205260409020600201546001600160a01b03163314610ece5760405162461bcd60e51b815260206004820152601e60248201527f546865207573657220646f65736e2774206f776e2074686520746f6b656e000060448201526064016108bc565b6000868152601460205260409020600201546001600160a01b03163314610f375760405162461bcd60e51b815260206004820152601e60248201527f546865207573657220646f65736e2774206f776e2074686520746f6b656e000060448201526064016108bc565b868603610f865760405162461bcd60e51b815260206004820152601e60248201527f546865206361742063616e277420726570726f6475636520697473656c66000060448201526064016108bc565b610f8e612fa8565b600760015b60808111611049576002610fa6826115f3565b610fb091906135c7565b600003610fe157610fc26064886135c7565b60ff16838360088110610fd757610fd7613559565b6020020152611007565b610fec6064896135c7565b60ff1683836008811061100157611001613559565b60200201525b6110126064886135db565b965061101f6064896135db565b9750806080146110375781611033816135ef565b9250505b611042816002613606565b9050610f93565b60006007611056846115f3565b61106091906135c7565b90506063611072610603856005613585565b61107c91906135c7565b848260ff166008811061109157611091613559565b602002015260009150815b60088310156110f0578483600881106110b7576110b7613559565b60200201516110c69082613585565b9050826007146110de576110db606482613606565b90505b826110e881613598565b93505061109c565b61111d6040518060400160405280600b81526020016a19d95b9952da590e88095960aa1b81525082611d15565b60008789106111485787891161113d57611138886001613585565b611153565b611138896001613585565b611153886001613585565b905060135481111561116457506013545b6111906040518060400160405280600a8152602001691ada5911d95b8e88095960b21b81525082611d15565b6040805160a08101825292835242602084015282018c9052606082018d905260808201529450505050509695505050505050565b60006001600160a01b03821661122e5760405162461bcd60e51b815260206004820152602960248201527f4552433732313a2061646472657373207a65726f206973206e6f7420612076616044820152683634b21037bbb732b960b91b60648201526084016108bc565b506001600160a01b031660009081526003602052604090205490565b60006060808280808361127e7f0000000000000000000000000000000000000000000000000000000000000000600c611d5a565b6112a97f0000000000000000000000000000000000000000000000000000000000000000600d611d5a565b60408051600080825260208201909252600f60f81b9b939a50919850469750309650945092509050565b6112db612f7a565b50600090815260146020908152604091829020825160a0810184528154815260018201546001600160a01b03908116938201939093526002820154909216928201929092526003820154606082015260049091015460ff161515608082015290565b6000918252600b602090815260408084206001600160a01b0393909316845291905290205460ff1690565b60606001805461079e906134d2565b6000818152601460209081526040918290206003810154600290910154835180850190945260098452681c1c9a58d94e88095960ba1b92840192909252916001600160a01b03909116906113cb9083611d15565b6113f6604051806040016040528060098152602001681d985b1d594e88095960ba1b81525034611d15565b60408051808201909152600981526876616c75653a20257360b81b602082015260115461142c91906001600160a01b0316611e05565b8134146114a3576040805162461bcd60e51b81526020600482015260248101919091527f506c65617365207375626d6974207468652061736b696e67207072696365206960448201527f6e206f7264657220746f20636f6d706c6574652074686520707572636861736560648201526084016108bc565b600083815260146020526040902060048101805460ff1916600117905560020180546001600160a01b031916331790556114e1601080546001019055565b6114ec303385611a9c565b6114f63084610848565b6000611502344761361d565b6011546040519192506001600160a01b03169082156108fc029083906000818181858888f1935050505015801561153d573d6000803e3d6000fd5b506040516001600160a01b038316903480156108fc02916000818181858888f19350505050158015611573573d6000803e3d6000fd5b5050505050565b610ac9338383611e4a565b6011546001600160a01b031633146115ee5760405162461bcd60e51b815260206004820152602660248201527f4f6e6c79206f776e65722063616e207570646174652067656e65726174696f6e604482015265081b1a5b5a5d60d21b60648201526084016108bc565b601355565b6040805142602082015244918101919091526bffffffffffffffffffffffff1941606090811b82168184015233901b16607482015260888101829052600090819060a80160408051601f19818403018152919052805160209091012090508261165b81613598565b50909392505050565b61166e3383611a1e565b61168a5760405162461bcd60e51b81526004016108bc9061350c565b61169684848484611f18565b50505050565b60006116ac600f80546001019055565b60006116b7600f5490565b90506116c33382611f4b565b6116cd8186611f65565b6116d8818585612030565b949350505050565b6011546001600160a01b031633146117465760405162461bcd60e51b815260206004820152602360248201527f4f6e6c79206f776e65722063616e20757064617465206c697374696e6720707260448201526269636560e81b60648201526084016108bc565b601255565b606061078982612244565b61175e612f7a565b6000611769600f5490565b600090815260146020908152604091829020825160a0810184528154815260018201546001600160a01b03908116938201939093526002820154909216928201929092526003820154606082015260049091015460ff161515608082015292915050565b6000828152600b60205260409020600101546117e881611c15565b61095d8383611ca5565b606060006117ff600f5490565b905060008167ffffffffffffffff81111561181c5761181c61333e565b60405190808252806020026020018201604052801561185557816020015b611842612f7a565b81526020019060019003908161183a5790505b509050600080805b8481101561191257611870816001613585565b600081815260146020908152604091829020825160a0810184528154815260018201546001600160a01b039081169382019390935260028201549092169282019290925260038201546060820152600482015460ff1615156080820152865192945090918690869081106118e6576118e6613559565b60209081029190910101526118fc600185613585565b935050808061190a90613598565b91505061185d565b5091949350505050565b6000611927600f5490565b905090565b60006001600160e01b03198216637965db0b60e01b148061078957506107898261234c565b6000818152600260205260409020546001600160a01b0316610b165760405162461bcd60e51b8152602060048201526018602482015277115490cdcc8c4e881a5b9d985b1a59081d1bdad95b88125160421b60448201526064016108bc565b600081815260046020526040902080546001600160a01b0319166001600160a01b03841690811790915581906119e582610dd3565b6001600160a01b03167f8c5be1e5ebec7d5bd14f71427d1e84f3dd0314c0f7b2291e5b200ac8c7c3b92560405160405180910390a45050565b600080611a2a83610dd3565b9050806001600160a01b0316846001600160a01b03161480611a7157506001600160a01b0380821660009081526005602090815260408083209388168352929052205460ff165b806116d85750836001600160a01b0316611a8a84610821565b6001600160a01b031614949350505050565b826001600160a01b0316611aaf82610dd3565b6001600160a01b031614611ad55760405162461bcd60e51b81526004016108bc90613630565b6001600160a01b038216611b375760405162461bcd60e51b8152602060048201526024808201527f4552433732313a207472616e7366657220746f20746865207a65726f206164646044820152637265737360e01b60648201526084016108bc565b611b448383836001612371565b826001600160a01b0316611b5782610dd3565b6001600160a01b031614611b7d5760405162461bcd60e51b81526004016108bc90613630565b600081815260046020908152604080832080546001600160a01b03199081169091556001600160a01b0387811680865260038552838620805460001901905590871680865283862080546001019055868652600290945282852080549092168417909155905184937fddf252ad1be2c89b69c2b068fc378daa952ba7f163c4a11628f55a4df523b3ef91a461095d838383600161237d565b610b168133612382565b611c29828261133d565b610ac9576000828152600b602090815260408083206001600160a01b03851684529091529020805460ff19166001179055611c613390565b6001600160a01b0316816001600160a01b0316837f2f8788117e7eff1d82e926ec794901d17c78024a50270940304540a733656f0d60405160405180910390a45050565b611caf828261133d565b15610ac9576000828152600b602090815260408083206001600160a01b0385168085529252808320805460ff1916905551339285917ff6391f5c32d9c69d2a47ea670b442974b53935d1edc7fd64eb21e047a839171b9190a45050565b610b16816123db565b610ac98282604051602401611d2b929190613675565b60408051601f198184030181529190526020810180516001600160e01b0316632d839cb360e21b17905261241b565b606060ff8314611d7457611d6d83612424565b9050610789565b818054611d80906134d2565b80601f0160208091040260200160405190810160405280929190818152602001828054611dac906134d2565b8015611df95780601f10611dce57610100808354040283529160200191611df9565b820191906000526020600020905b815481529060010190602001808311611ddc57829003601f168201915b50505050509050610789565b610ac98282604051602401611e1b929190613697565b60408051601f198184030181529190526020810180516001600160e01b031663319af33360e01b17905261241b565b816001600160a01b0316836001600160a01b031603611eab5760405162461bcd60e51b815260206004820152601960248201527f4552433732313a20617070726f766520746f2063616c6c65720000000000000060448201526064016108bc565b6001600160a01b03838116600081815260056020908152604080832094871680845294825291829020805460ff191686151590811790915591519182527f17307eab39ab6107e8899845ad3d59bd9653f200f220920489ca2b5937696c31910160405180910390a3505050565b611f23848484611a9c565b611f2f84848484612463565b6116965760405162461bcd60e51b81526004016108bc906136c1565b610ac9828260405180602001604052806000815250612564565b6000828152600260205260409020546001600160a01b0316611fe05760405162461bcd60e51b815260206004820152602e60248201527f45524337323155524953746f726167653a2055524920736574206f66206e6f6e60448201526d32bc34b9ba32b73a103a37b5b2b760911b60648201526084016108bc565b6000828152600a60205260409020611ff88282613761565b506040518281527ff8e1a15aba9398e019f0b49df1a4fde98ee17ae345cb5f6b5e2c27f5033e8ce79060200160405180910390a15050565b80156120995761203f81612597565b34146120995760405162461bcd60e51b815260206004820152602360248201527f486f706566756c6c792073656e64696e672074686520636f727265637420707260448201526269636560e81b60648201526084016108bc565b600082116120f45760405162461bcd60e51b815260206004820152602260248201527f4d616b652073757265207468652070726963652069736e2774206e6567617469604482015261766560f01b60648201526084016108bc565b600081118061210d57506011546001600160a01b031633145b6121595760405162461bcd60e51b815260206004820152601e60248201527f4f6e6c79204f776e6572206372656174652067656e65726174696f6e2030000060448201526064016108bc565b6040805160a081018252848152306020808301828152338486018181526060860189815260016080880181815260008d815260149097529890952096518755925193860180546001600160a01b039586166001600160a01b03199182161790915590516002870180549190951691161790925551600384015592516004909201805492151560ff19909316929092179091556121f6919085611a9c565b604080513081523360208201529081018390526001606082015283907f9339409317fd01fabff48b703019016f49159bacc801ae872d2ca637d226e4c09060800160405180910390a2505050565b606061224f82611951565b6000828152600a602052604081208054612268906134d2565b80601f0160208091040260200160405190810160405280929190818152602001828054612294906134d2565b80156122e15780601f106122b6576101008083540402835291602001916122e1565b820191906000526020600020905b8154815290600101906020018083116122c457829003601f168201915b5050505050905060006122ff60408051602081019091526000815290565b90508051600003612311575092915050565b81511561234357808260405160200161232b929190613821565b60405160208183030381529060405292505050919050565b6116d884612623565b60006001600160e01b03198216632483248360e11b1480610789575061078982612696565b611696848484846126bb565b611696565b61238c828261133d565b610ac957612399816127e8565b6123a48360206127fa565b6040516020016123b5929190613850565b60408051601f198184030181529082905262461bcd60e51b82526108bc91600401613098565b6123e481612996565b6000818152600a6020526040902080546123fd906134d2565b159050610b16576000818152600a60205260408120610b1691612fc7565b610b1681612a43565b6060600061243183612a64565b604080516020808252818301909252919250600091906020820181803683375050509182525060208101929092525090565b60006001600160a01b0384163b1561255957604051630a85bd0160e11b81526001600160a01b0385169063150b7a02906124a79033908990889088906004016138c5565b6020604051808303816000875af19250505080156124e2575060408051601f3d908101601f191682019092526124df91810190613902565b60015b61253f573d808015612510576040519150601f19603f3d011682016040523d82523d6000602084013e612515565b606091505b5080516000036125375760405162461bcd60e51b81526004016108bc906136c1565b805181602001fd5b6001600160e01b031916630a85bd0160e11b1490506116d8565b506001949350505050565b61256e8383612a8c565b61257b6000848484612463565b61095d5760405162461bcd60e51b81526004016108bc906136c1565b60008064e8d4a51000670de0b6b3a764000084601254670de0b6b3a76400006125c09190613606565b6125ca91906135db565b6125d491906135db565b6125de91906135c7565b670de0b6b3a764000084601254670de0b6b3a76400006125fe9190613606565b61260891906135db565b61261291906135db565b61261c919061361d565b9392505050565b606061262e82611951565b600061264560408051602081019091526000815290565b90506000815111612665576040518060200160405280600081525061261c565b8061266f84612c2f565b604051602001612680929190613821565b6040516020818303038152906040529392505050565b60006001600160e01b0319821663780e9d6360e01b1480610789575061078982612cc2565b600181111561272a5760405162461bcd60e51b815260206004820152603560248201527f455243373231456e756d657261626c653a20636f6e7365637574697665207472604482015274185b9cd9995c9cc81b9bdd081cdd5c1c1bdc9d1959605a1b60648201526084016108bc565b816001600160a01b0385166127865761278181600880546000838152600960205260408120829055600182018355919091527ff3f7a9fe364faab93b216da50a3214154f22a0a2b415b23a84c8169e8b636ee30155565b6127a9565b836001600160a01b0316856001600160a01b0316146127a9576127a98582612d12565b6001600160a01b0384166127c5576127c081612daf565b611573565b846001600160a01b0316846001600160a01b031614611573576115738482612e5e565b60606107896001600160a01b03831660145b60606000612809836002613606565b612814906002613585565b67ffffffffffffffff81111561282c5761282c61333e565b6040519080825280601f01601f191660200182016040528015612856576020820181803683370190505b509050600360fc1b8160008151811061287157612871613559565b60200101906001600160f81b031916908160001a905350600f60fb1b816001815181106128a0576128a0613559565b60200101906001600160f81b031916908160001a90535060006128c4846002613606565b6128cf906001613585565b90505b6001811115612947576f181899199a1a9b1b9c1cb0b131b232b360811b85600f166010811061290357612903613559565b1a60f81b82828151811061291957612919613559565b60200101906001600160f81b031916908160001a90535060049490941c93612940816135ef565b90506128d2565b50831561261c5760405162461bcd60e51b815260206004820181905260248201527f537472696e67733a20686578206c656e67746820696e73756666696369656e7460448201526064016108bc565b60006129a182610dd3565b90506129b1816000846001612371565b6129ba82610dd3565b600083815260046020908152604080832080546001600160a01b03199081169091556001600160a01b0385168085526003845282852080546000190190558785526002909352818420805490911690555192935084927fddf252ad1be2c89b69c2b068fc378daa952ba7f163c4a11628f55a4df523b3ef908390a4610ac981600084600161237d565b60006a636f6e736f6c652e6c6f679050600080835160208501845afa505050565b600060ff8216601f81111561078957604051632cd44ac360e21b815260040160405180910390fd5b6001600160a01b038216612ae25760405162461bcd60e51b815260206004820181905260248201527f4552433732313a206d696e7420746f20746865207a65726f206164647265737360448201526064016108bc565b6000818152600260205260409020546001600160a01b031615612b475760405162461bcd60e51b815260206004820152601c60248201527f4552433732313a20746f6b656e20616c7265616479206d696e7465640000000060448201526064016108bc565b612b55600083836001612371565b6000818152600260205260409020546001600160a01b031615612bba5760405162461bcd60e51b815260206004820152601c60248201527f4552433732313a20746f6b656e20616c7265616479206d696e7465640000000060448201526064016108bc565b6001600160a01b038216600081815260036020908152604080832080546001019055848352600290915280822080546001600160a01b0319168417905551839291907fddf252ad1be2c89b69c2b068fc378daa952ba7f163c4a11628f55a4df523b3ef908290a4610ac960008383600161237d565b60606000612c3c83612ea2565b600101905060008167ffffffffffffffff811115612c5c57612c5c61333e565b6040519080825280601f01601f191660200182016040528015612c86576020820181803683370190505b5090508181016020015b600019016f181899199a1a9b1b9c1cb0b131b232b360811b600a86061a8153600a8504945084612c9057509392505050565b60006001600160e01b031982166380ac58cd60e01b1480612cf357506001600160e01b03198216635b5e139f60e01b145b8061078957506301ffc9a760e01b6001600160e01b0319831614610789565b60006001612d1f846111c4565b612d29919061361d565b600083815260076020526040902054909150808214612d7c576001600160a01b03841660009081526006602090815260408083208584528252808320548484528184208190558352600790915290208190555b5060009182526007602090815260408084208490556001600160a01b039094168352600681528383209183525290812055565b600854600090612dc19060019061361d565b60008381526009602052604081205460088054939450909284908110612de957612de9613559565b906000526020600020015490508060088381548110612e0a57612e0a613559565b6000918252602080832090910192909255828152600990915260408082208490558582528120556008805480612e4257612e4261391f565b6001900381819060005260206000200160009055905550505050565b6000612e69836111c4565b6001600160a01b039093166000908152600660209081526040808320868452825280832085905593825260079052919091209190915550565b60008072184f03e93ff9f4daa797ed6e38ed64bf6a1f0160401b8310612ee15772184f03e93ff9f4daa797ed6e38ed64bf6a1f0160401b830492506040015b6d04ee2d6d415b85acef81000000008310612f0d576d04ee2d6d415b85acef8100000000830492506020015b662386f26fc100008310612f2b57662386f26fc10000830492506010015b6305f5e1008310612f43576305f5e100830492506008015b6127108310612f5757612710830492506004015b60648310612f69576064830492506002015b600a83106107895760010192915050565b6040805160a08101825260008082526020820181905291810182905260608101829052608081019190915290565b6040518061010001604052806008906020820280368337509192915050565b508054612fd3906134d2565b6000825580601f10612fe3575050565b601f016020900490600052602060002090810190610b1691905b808211156130115760008155600101612ffd565b5090565b6001600160e01b031981168114610b1657600080fd5b60006020828403121561303d57600080fd5b813561261c81613015565b60005b8381101561306357818101518382015260200161304b565b50506000910152565b60008151808452613084816020860160208601613048565b601f01601f19169290920160200192915050565b60208152600061261c602083018461306c565b6000602082840312156130bd57600080fd5b5035919050565b80356001600160a01b03811681146130db57600080fd5b919050565b600080604083850312156130f357600080fd5b6130fc836130c4565b946020939093013593505050565b60008060006060848603121561311f57600080fd5b613128846130c4565b9250613136602085016130c4565b9150604084013590509250925092565b6000806040838503121561315957600080fd5b82359150613169602084016130c4565b90509250929050565b805182526020808201516001600160a01b039081169184019190915260408083015190911690830152606080820151908301526080908101511515910152565b6020808252825182820181905260009190848201906040850190845b818110156131f4576131e1838551613172565b9284019260a092909201916001016131ce565b50909695505050505050565b60008060008060008060c0878903121561321957600080fd5b505084359660208601359650604086013595606081013595506080810135945060a0013592509050565b60006020828403121561325557600080fd5b61261c826130c4565b60ff60f81b881681526000602060e08184015261327e60e084018a61306c565b8381036040850152613290818a61306c565b606085018990526001600160a01b038816608086015260a0850187905284810360c0860152855180825283870192509083019060005b818110156132e2578351835292840192918401916001016132c6565b50909c9b505050505050505050505050565b60a081016107898284613172565b6000806040838503121561331557600080fd5b61331e836130c4565b91506020830135801515811461333357600080fd5b809150509250929050565b634e487b7160e01b600052604160045260246000fd5b600067ffffffffffffffff8084111561336f5761336f61333e565b604051601f8501601f19908116603f011681019082821181831017156133975761339761333e565b816040528093508581528686860111156133b057600080fd5b858560208301376000602087830101525050509392505050565b600080600080608085870312156133e057600080fd5b6133e9856130c4565b93506133f7602086016130c4565b925060408501359150606085013567ffffffffffffffff81111561341a57600080fd5b8501601f8101871361342b57600080fd5b61343a87823560208401613354565b91505092959194509250565b60008060006060848603121561345b57600080fd5b833567ffffffffffffffff81111561347257600080fd5b8401601f8101861361348357600080fd5b61349286823560208401613354565b9660208601359650604090950135949350505050565b600080604083850312156134bb57600080fd5b6134c4836130c4565b9150613169602084016130c4565b600181811c908216806134e657607f821691505b60208210810361350657634e487b7160e01b600052602260045260246000fd5b50919050565b6020808252602d908201527f4552433732313a2063616c6c6572206973206e6f7420746f6b656e206f776e6560408201526c1c881bdc88185c1c1c9bdd9959609a1b606082015260800190565b634e487b7160e01b600052603260045260246000fd5b634e487b7160e01b600052601160045260246000fd5b808201808211156107895761078961356f565b6000600182016135aa576135aa61356f565b5060010190565b634e487b7160e01b600052601260045260246000fd5b6000826135d6576135d66135b1565b500690565b6000826135ea576135ea6135b1565b500490565b6000816135fe576135fe61356f565b506000190190565b80820281158282048414176107895761078961356f565b818103818111156107895761078961356f565b60208082526025908201527f4552433732313a207472616e736665722066726f6d20696e636f72726563742060408201526437bbb732b960d91b606082015260800190565b604081526000613688604083018561306c565b90508260208301529392505050565b6040815260006136aa604083018561306c565b905060018060a01b03831660208301529392505050565b60208082526032908201527f4552433732313a207472616e7366657220746f206e6f6e20455243373231526560408201527131b2b4bb32b91034b6b83632b6b2b73a32b960711b606082015260800190565b601f82111561095d57600081815260208120601f850160051c8101602086101561373a5750805b601f850160051c820191505b8181101561375957828155600101613746565b505050505050565b815167ffffffffffffffff81111561377b5761377b61333e565b61378f8161378984546134d2565b84613713565b602080601f8311600181146137c457600084156137ac5750858301515b600019600386901b1c1916600185901b178555613759565b600085815260208120601f198616915b828110156137f3578886015182559484019460019091019084016137d4565b50858210156138115787850151600019600388901b60f8161c191681555b5050505050600190811b01905550565b60008351613833818460208801613048565b835190830190613847818360208801613048565b01949350505050565b7f416363657373436f6e74726f6c3a206163636f756e7420000000000000000000815260008351613888816017850160208801613048565b7001034b99036b4b9b9b4b733903937b6329607d1b60179184019182015283516138b9816028840160208801613048565b01602801949350505050565b6001600160a01b03858116825284166020820152604081018390526080606082018190526000906138f89083018461306c565b9695505050505050565b60006020828403121561391457600080fd5b815161261c81613015565b634e487b7160e01b600052603160045260246000fdfea26469706673582212207be917d51e7f060165a492f9697cbde5c2a970e98185d9fec988a6994d36dc2264736f6c634300081300334552433732313a207472616e7366657220746f206e6f6e2045524337323152654552433732313a207472616e736665722066726f6d20696e636f727265637420ddf252ad1be2c89b69c2b068fc378daa952ba7f163c4a11628f55a4df523b3ef",
  "linkReferences": {},
  "deployedLinkReferences": {}
}