{
  "_format": "hh-sol-artifact-1",
  "contractName": "Utils",
  "sourceName": "contracts/Utils.sol",
  "abi": [
    {
      "inputs": [],
      "stateMutability": "nonpayable",
      "type": "constructor"
    },
    {
      "inputs": [],
      "name": "InvalidShortString",
      "type": "error"
    },
    {
      "inputs": [
        {
          "internalType": "string",
          "name": "str",
          "type": "string"
        }
      ],
      "name": "StringTooLong",
      "type": "error"
    },
    {
      "anonymous": false,
      "inputs": [
        {
          "indexed": true,
          "internalType": "address",
          "name": "owner",
          "type": "address"
        },
        {
          "indexed": true,
          "internalType": "address",
          "name": "approved",
          "type": "address"
        },
        {
          "indexed": true,
          "internalType": "uint256",
          "name": "tokenId",
          "type": "uint256"
        }
      ],
      "name": "Approval",
      "type": "event"
    },
    {
      "anonymous": false,
      "inputs": [
        {
          "indexed": true,
          "internalType": "address",
          "name": "owner",
          "type": "address"
        },
        {
          "indexed": true,
          "internalType": "address",
          "name": "operator",
          "type": "address"
        },
        {
          "indexed": false,
          "internalType": "bool",
          "name": "approved",
          "type": "bool"
        }
      ],
      "name": "ApprovalForAll",
      "type": "event"
    },
    {
      "anonymous": false,
      "inputs": [
        {
          "indexed": false,
          "internalType": "uint256",
          "name": "_fromTokenId",
          "type": "uint256"
        },
        {
          "indexed": false,
          "internalType": "uint256",
          "name": "_toTokenId",
          "type": "uint256"
        }
      ],
      "name": "BatchMetadataUpdate",
      "type": "event"
    },
    {
      "anonymous": false,
      "inputs": [],
      "name": "EIP712DomainChanged",
      "type": "event"
    },
    {
      "anonymous": false,
      "inputs": [
        {
          "indexed": false,
          "internalType": "uint256",
          "name": "_tokenId",
          "type": "uint256"
        }
      ],
      "name": "MetadataUpdate",
      "type": "event"
    },
    {
      "anonymous": false,
      "inputs": [
        {
          "indexed": true,
          "internalType": "bytes32",
          "name": "role",
          "type": "bytes32"
        },
        {
          "indexed": true,
          "internalType": "bytes32",
          "name": "previousAdminRole",
          "type": "bytes32"
        },
        {
          "indexed": true,
          "internalType": "bytes32",
          "name": "newAdminRole",
          "type": "bytes32"
        }
      ],
      "name": "RoleAdminChanged",
      "type": "event"
    },
    {
      "anonymous": false,
      "inputs": [
        {
          "indexed": true,
          "internalType": "bytes32",
          "name": "role",
          "type": "bytes32"
        },
        {
          "indexed": true,
          "internalType": "address",
          "name": "account",
          "type": "address"
        },
        {
          "indexed": true,
          "internalType": "address",
          "name": "sender",
          "type": "address"
        }
      ],
      "name": "RoleGranted",
      "type": "event"
    },
    {
      "anonymous": false,
      "inputs": [
        {
          "indexed": true,
          "internalType": "bytes32",
          "name": "role",
          "type": "bytes32"
        },
        {
          "indexed": true,
          "internalType": "address",
          "name": "account",
          "type": "address"
        },
        {
          "indexed": true,
          "internalType": "address",
          "name": "sender",
          "type": "address"
        }
      ],
      "name": "RoleRevoked",
      "type": "event"
    },
    {
      "anonymous": false,
      "inputs": [
        {
          "indexed": true,
          "internalType": "uint256",
          "name": "tokenId",
          "type": "uint256"
        },
        {
          "indexed": false,
          "internalType": "address",
          "name": "owner",
          "type": "address"
        },
        {
          "indexed": false,
          "internalType": "address",
          "name": "seller",
          "type": "address"
        },
        {
          "indexed": false,
          "internalType": "uint256",
          "name": "price",
          "type": "uint256"
        },
        {
          "indexed": false,
          "internalType": "bool",
          "name": "currentlyListed",
          "type": "bool"
        }
      ],
      "name": "TokenListedSuccess",
      "type": "event"
    },
    {
      "anonymous": false,
      "inputs": [
        {
          "indexed": true,
          "internalType": "address",
          "name": "from",
          "type": "address"
        },
        {
          "indexed": true,
          "internalType": "address",
          "name": "to",
          "type": "address"
        },
        {
          "indexed": true,
          "internalType": "uint256",
          "name": "tokenId",
          "type": "uint256"
        }
      ],
      "name": "Transfer",
      "type": "event"
    },
    {
      "inputs": [],
      "name": "DEFAULT_ADMIN_ROLE",
      "outputs": [
        {
          "internalType": "bytes32",
          "name": "",
          "type": "bytes32"
        }
      ],
      "stateMutability": "view",
      "type": "function"
    },
    {
      "inputs": [],
      "name": "MINTER_ROLE",
      "outputs": [
        {
          "internalType": "bytes32",
          "name": "",
          "type": "bytes32"
        }
      ],
      "stateMutability": "view",
      "type": "function"
    },
    {
      "inputs": [],
      "name": "PAUSER_ROLE",
      "outputs": [
        {
          "internalType": "bytes32",
          "name": "",
          "type": "bytes32"
        }
      ],
      "stateMutability": "view",
      "type": "function"
    },
    {
      "inputs": [
        {
          "internalType": "address",
          "name": "to",
          "type": "address"
        },
        {
          "internalType": "uint256",
          "name": "tokenId",
          "type": "uint256"
        }
      ],
      "name": "approve",
      "outputs": [],
      "stateMutability": "nonpayable",
      "type": "function"
    },
    {
      "inputs": [
        {
          "internalType": "address",
          "name": "owner",
          "type": "address"
        }
      ],
      "name": "balanceOf",
      "outputs": [
        {
          "internalType": "uint256",
          "name": "",
          "type": "uint256"
        }
      ],
      "stateMutability": "view",
      "type": "function"
    },
    {
      "inputs": [
        {
          "internalType": "uint256",
          "name": "tokenId",
          "type": "uint256"
        }
      ],
      "name": "burn",
      "outputs": [],
      "stateMutability": "nonpayable",
      "type": "function"
    },
    {
      "inputs": [
        {
          "internalType": "string",
          "name": "_tokenURI",
          "type": "string"
        },
        {
          "internalType": "uint256",
          "name": "price",
          "type": "uint256"
        },
        {
          "internalType": "uint256",
          "name": "generation",
          "type": "uint256"
        }
      ],
      "name": "createToken",
      "outputs": [
        {
          "internalType": "uint256",
          "name": "",
          "type": "uint256"
        }
      ],
      "stateMutability": "payable",
      "type": "function"
    },
    {
      "inputs": [],
      "name": "eip712Domain",
      "outputs": [
        {
          "internalType": "bytes1",
          "name": "fields",
          "type": "bytes1"
        },
        {
          "internalType": "string",
          "name": "name",
          "type": "string"
        },
        {
          "internalType": "string",
          "name": "version",
          "type": "string"
        },
        {
          "internalType": "uint256",
          "name": "chainId",
          "type": "uint256"
        },
        {
          "internalType": "address",
          "name": "verifyingContract",
          "type": "address"
        },
        {
          "internalType": "bytes32",
          "name": "salt",
          "type": "bytes32"
        },
        {
          "internalType": "uint256[]",
          "name": "extensions",
          "type": "uint256[]"
        }
      ],
      "stateMutability": "view",
      "type": "function"
    },
    {
      "inputs": [
        {
          "internalType": "uint256",
          "name": "tokenId",
          "type": "uint256"
        }
      ],
      "name": "executeSale",
      "outputs": [],
      "stateMutability": "payable",
      "type": "function"
    },
    {
      "inputs": [],
      "name": "getAllNFTs",
      "outputs": [
        {
          "components": [
            {
              "internalType": "uint256",
              "name": "tokenId",
              "type": "uint256"
            },
            {
              "internalType": "address payable",
              "name": "owner",
              "type": "address"
            },
            {
              "internalType": "address payable",
              "name": "seller",
              "type": "address"
            },
            {
              "internalType": "uint256",
              "name": "price",
              "type": "uint256"
            },
            {
              "internalType": "bool",
              "name": "currentlyListed",
              "type": "bool"
            }
          ],
          "internalType": "struct KittyContract.ListedToken[]",
          "name": "",
          "type": "tuple[]"
        }
      ],
      "stateMutability": "view",
      "type": "function"
    },
    {
      "inputs": [
        {
          "internalType": "uint256",
          "name": "tokenId",
          "type": "uint256"
        }
      ],
      "name": "getApproved",
      "outputs": [
        {
          "internalType": "address",
          "name": "",
          "type": "address"
        }
      ],
      "stateMutability": "view",
      "type": "function"
    },
    {
      "inputs": [],
      "name": "getCurrentToken",
      "outputs": [
        {
          "internalType": "uint256",
          "name": "",
          "type": "uint256"
        }
      ],
      "stateMutability": "view",
      "type": "function"
    },
    {
      "inputs": [],
      "name": "getGenerationLimit",
      "outputs": [
        {
          "internalType": "uint256",
          "name": "",
          "type": "uint256"
        }
      ],
      "stateMutability": "view",
      "type": "function"
    },
    {
      "inputs": [],
      "name": "getLatestIdToListedToken",
      "outputs": [
        {
          "components": [
            {
              "internalType": "uint256",
              "name": "tokenId",
              "type": "uint256"
            },
            {
              "internalType": "address payable",
              "name": "owner",
              "type": "address"
            },
            {
              "internalType": "address payable",
              "name": "seller",
              "type": "address"
            },
            {
              "internalType": "uint256",
              "name": "price",
              "type": "uint256"
            },
            {
              "internalType": "bool",
              "name": "currentlyListed",
              "type": "bool"
            }
          ],
          "internalType": "struct KittyContract.ListedToken",
          "name": "",
          "type": "tuple"
        }
      ],
      "stateMutability": "view",
      "type": "function"
    },
    {
      "inputs": [],
      "name": "getListPrice",
      "outputs": [
        {
          "internalType": "uint256",
          "name": "",
          "type": "uint256"
        }
      ],
      "stateMutability": "view",
      "type": "function"
    },
    {
      "inputs": [
        {
          "internalType": "uint256",
          "name": "tokenId",
          "type": "uint256"
        }
      ],
      "name": "getListedTokenForId",
      "outputs": [
        {
          "components": [
            {
              "internalType": "uint256",
              "name": "tokenId",
              "type": "uint256"
            },
            {
              "internalType": "address payable",
              "name": "owner",
              "type": "address"
            },
            {
              "internalType": "address payable",
              "name": "seller",
              "type": "address"
            },
            {
              "internalType": "uint256",
              "name": "price",
              "type": "uint256"
            },
            {
              "internalType": "bool",
              "name": "currentlyListed",
              "type": "bool"
            }
          ],
          "internalType": "struct KittyContract.ListedToken",
          "name": "",
          "type": "tuple"
        }
      ],
      "stateMutability": "view",
      "type": "function"
    },
    {
      "inputs": [],
      "name": "getMyNFTs",
      "outputs": [
        {
          "components": [
            {
              "internalType": "uint256",
              "name": "tokenId",
              "type": "uint256"
            },
            {
              "internalType": "address payable",
              "name": "owner",
              "type": "address"
            },
            {
              "internalType": "address payable",
              "name": "seller",
              "type": "address"
            },
            {
              "internalType": "uint256",
              "name": "price",
              "type": "uint256"
            },
            {
              "internalType": "bool",
              "name": "currentlyListed",
              "type": "bool"
            }
          ],
          "internalType": "struct KittyContract.ListedToken[]",
          "name": "",
          "type": "tuple[]"
        }
      ],
      "stateMutability": "view",
      "type": "function"
    },
    {
      "inputs": [
        {
          "internalType": "uint256",
          "name": "nonce",
          "type": "uint256"
        }
      ],
      "name": "getRandomNumber",
      "outputs": [
        {
          "internalType": "uint256",
          "name": "",
          "type": "uint256"
        }
      ],
      "stateMutability": "view",
      "type": "function"
    },
    {
      "inputs": [
        {
          "internalType": "bytes32",
          "name": "role",
          "type": "bytes32"
        }
      ],
      "name": "getRoleAdmin",
      "outputs": [
        {
          "internalType": "bytes32",
          "name": "",
          "type": "bytes32"
        }
      ],
      "stateMutability": "view",
      "type": "function"
    },
    {
      "inputs": [
        {
          "internalType": "bytes32",
          "name": "role",
          "type": "bytes32"
        },
        {
          "internalType": "address",
          "name": "account",
          "type": "address"
        }
      ],
      "name": "grantRole",
      "outputs": [],
      "stateMutability": "nonpayable",
      "type": "function"
    },
    {
      "inputs": [
        {
          "internalType": "bytes32",
          "name": "role",
          "type": "bytes32"
        },
        {
          "internalType": "address",
          "name": "account",
          "type": "address"
        }
      ],
      "name": "hasRole",
      "outputs": [
        {
          "internalType": "bool",
          "name": "",
          "type": "bool"
        }
      ],
      "stateMutability": "view",
      "type": "function"
    },
    {
      "inputs": [
        {
          "internalType": "address",
          "name": "owner",
          "type": "address"
        },
        {
          "internalType": "address",
          "name": "operator",
          "type": "address"
        }
      ],
      "name": "isApprovedForAll",
      "outputs": [
        {
          "internalType": "bool",
          "name": "",
          "type": "bool"
        }
      ],
      "stateMutability": "view",
      "type": "function"
    },
    {
      "inputs": [],
      "name": "name",
      "outputs": [
        {
          "internalType": "string",
          "name": "",
          "type": "string"
        }
      ],
      "stateMutability": "view",
      "type": "function"
    },
    {
      "inputs": [
        {
          "internalType": "uint256",
          "name": "tokenId",
          "type": "uint256"
        }
      ],
      "name": "ownerOf",
      "outputs": [
        {
          "internalType": "address",
          "name": "",
          "type": "address"
        }
      ],
      "stateMutability": "view",
      "type": "function"
    },
    {
      "inputs": [
        {
          "internalType": "bytes32",
          "name": "role",
          "type": "bytes32"
        },
        {
          "internalType": "address",
          "name": "account",
          "type": "address"
        }
      ],
      "name": "renounceRole",
      "outputs": [],
      "stateMutability": "nonpayable",
      "type": "function"
    },
    {
      "inputs": [
        {
          "internalType": "bytes32",
          "name": "role",
          "type": "bytes32"
        },
        {
          "internalType": "address",
          "name": "account",
          "type": "address"
        }
      ],
      "name": "revokeRole",
      "outputs": [],
      "stateMutability": "nonpayable",
      "type": "function"
    },
    {
      "inputs": [
        {
          "internalType": "address",
          "name": "from",
          "type": "address"
        },
        {
          "internalType": "address",
          "name": "to",
          "type": "address"
        },
        {
          "internalType": "uint256",
          "name": "tokenId",
          "type": "uint256"
        }
      ],
      "name": "safeTransferFrom",
      "outputs": [],
      "stateMutability": "nonpayable",
      "type": "function"
    },
    {
      "inputs": [
        {
          "internalType": "address",
          "name": "from",
          "type": "address"
        },
        {
          "internalType": "address",
          "name": "to",
          "type": "address"
        },
        {
          "internalType": "uint256",
          "name": "tokenId",
          "type": "uint256"
        },
        {
          "internalType": "bytes",
          "name": "data",
          "type": "bytes"
        }
      ],
      "name": "safeTransferFrom",
      "outputs": [],
      "stateMutability": "nonpayable",
      "type": "function"
    },
    {
      "inputs": [
        {
          "internalType": "address",
          "name": "operator",
          "type": "address"
        },
        {
          "internalType": "bool",
          "name": "approved",
          "type": "bool"
        }
      ],
      "name": "setApprovalForAll",
      "outputs": [],
      "stateMutability": "nonpayable",
      "type": "function"
    },
    {
      "inputs": [
        {
          "internalType": "bytes4",
          "name": "interfaceId",
          "type": "bytes4"
        }
      ],
      "name": "supportsInterface",
      "outputs": [
        {
          "internalType": "bool",
          "name": "",
          "type": "bool"
        }
      ],
      "stateMutability": "view",
      "type": "function"
    },
    {
      "inputs": [],
      "name": "symbol",
      "outputs": [
        {
          "internalType": "string",
          "name": "",
          "type": "string"
        }
      ],
      "stateMutability": "view",
      "type": "function"
    },
    {
      "inputs": [
        {
          "internalType": "uint256",
          "name": "index",
          "type": "uint256"
        }
      ],
      "name": "tokenByIndex",
      "outputs": [
        {
          "internalType": "uint256",
          "name": "",
          "type": "uint256"
        }
      ],
      "stateMutability": "view",
      "type": "function"
    },
    {
      "inputs": [
        {
          "internalType": "address",
          "name": "owner",
          "type": "address"
        },
        {
          "internalType": "uint256",
          "name": "index",
          "type": "uint256"
        }
      ],
      "name": "tokenOfOwnerByIndex",
      "outputs": [
        {
          "internalType": "uint256",
          "name": "",
          "type": "uint256"
        }
      ],
      "stateMutability": "view",
      "type": "function"
    },
    {
      "inputs": [
        {
          "internalType": "uint256",
          "name": "tokenId",
          "type": "uint256"
        }
      ],
      "name": "tokenURI",
      "outputs": [
        {
          "internalType": "string",
          "name": "",
          "type": "string"
        }
      ],
      "stateMutability": "view",
      "type": "function"
    },
    {
      "inputs": [],
      "name": "totalSupply",
      "outputs": [
        {
          "internalType": "uint256",
          "name": "",
          "type": "uint256"
        }
      ],
      "stateMutability": "view",
      "type": "function"
    },
    {
      "inputs": [
        {
          "internalType": "address",
          "name": "from",
          "type": "address"
        },
        {
          "internalType": "address",
          "name": "to",
          "type": "address"
        },
        {
          "internalType": "uint256",
          "name": "tokenId",
          "type": "uint256"
        }
      ],
      "name": "transferFrom",
      "outputs": [],
      "stateMutability": "nonpayable",
      "type": "function"
    },
    {
      "inputs": [
        {
          "internalType": "uint256",
          "name": "_limit",
          "type": "uint256"
        }
      ],
      "name": "updateGenerationLimit",
      "outputs": [],
      "stateMutability": "payable",
      "type": "function"
    },
    {
      "inputs": [
        {
          "internalType": "uint256",
          "name": "_listPrice",
          "type": "uint256"
        }
      ],
      "name": "updateListPrice",
      "outputs": [],
      "stateMutability": "payable",
      "type": "function"
    }
  ],
  "bytecode": "0x61016060405266038d7ea4c68000601255600a6013553480156200002257600080fd5b50604080518082018252600d8082526c12da5d1d1e50dbdb9d1c9858dd609a1b60208084018290528451808601865260018152603160f81b8183015285518087018752938452838201929092528451808601909552600385526212d25560ea1b9085015291926000620000968382620003ab565b506001620000a58282620003ab565b50620000b79150839050600c620001dc565b61012052620000c881600d620001dc565b61014052815160208084019190912060e052815190820120610100524660a0526200015660e05161010051604080517f8b73c3c69bb8fe3d512ecc4cf759cc79239f7b179b0ffacaa9a75d522b39400f60208201529081019290925260608201524660808201523060a082015260009060c00160405160208183030381529060405280519060200120905090565b60805250503060c0526200016c60003362000215565b620001987f65d7a28e3265b37a6474929f336521b332c1681b933f6cb9f3376673440d862a3362000215565b620001c47f9f2df0fed2c77648de5860a4cc508cd0818c85b8b8a1ab4ceeef8d981c8956a63362000215565b601180546001600160a01b03191633179055620004ec565b6000602083511015620001fc57620001f483620002ba565b90506200020f565b81620002098482620003ab565b5060ff90505b92915050565b6000828152600b602090815260408083206001600160a01b038516845290915290205460ff16620002b6576000828152600b602090815260408083206001600160a01b03851684529091529020805460ff19166001179055620002753390565b6001600160a01b0316816001600160a01b0316837f2f8788117e7eff1d82e926ec794901d17c78024a50270940304540a733656f0d60405160405180910390a45b5050565b600080829050601f81511115620002f1578260405163305a27a960e01b8152600401620002e8919062000477565b60405180910390fd5b8051620002fe82620004c7565b179392505050565b634e487b7160e01b600052604160045260246000fd5b600181811c908216806200033157607f821691505b6020821081036200035257634e487b7160e01b600052602260045260246000fd5b50919050565b601f821115620003a657600081815260208120601f850160051c81016020861015620003815750805b601f850160051c820191505b81811015620003a2578281556001016200038d565b5050505b505050565b81516001600160401b03811115620003c757620003c762000306565b620003df81620003d884546200031c565b8462000358565b602080601f831160018114620004175760008415620003fe5750858301515b600019600386901b1c1916600185901b178555620003a2565b600085815260208120601f198616915b82811015620004485788860151825594840194600190910190840162000427565b5085821015620004675787850151600019600388901b60f8161c191681555b5050505050600190811b01905550565b600060208083528351808285015260005b81811015620004a65785810183015185820160400152820162000488565b506000604082860101526040601f19601f8301168501019250505092915050565b80516020808301519190811015620003525760001960209190910360031b1b16919050565b60805160a05160c05160e05161010051610120516101405161350b620005386000396000610e8501526000610e5a0152600050506000505060005050600050506000505061350b6000f3fe6080604052600436106102255760003560e01c80638e26459011610123578063bec2a7c5116100ab578063d547741f1161006f578063d547741f1461064a578063e0391b091461066a578063e63ab1e91461067f578063e985e9c5146106b3578063ef2d1746146106fc57600080fd5b8063bec2a7c5146105bb578063c322579c146105ce578063c87b56dd146105e1578063d1a88ae514610601578063d53913931461061657600080fd5b8063a217fddf116100f2578063a217fddf14610533578063a22cb46514610548578063adc01b1214610568578063b37217a41461057b578063b88d4fde1461059b57600080fd5b80638e264590146104be57806391d14854146104eb57806395d89b411461050b5780639b1225c41461052057600080fd5b806336568abe116101b1578063629cb2e411610175578063629cb2e41461041f5780636352211e1461044157806368f1945f1461046157806370a082311461047657806384b0196e1461049657600080fd5b806336568abe1461038a57806342842e0e146103aa57806342966c68146103ca57806345643e9b146103ea5780634f6ccce7146103ff57600080fd5b806318160ddd116101f857806318160ddd146102db57806323b872dd146102fa578063248a9ca31461031a5780632f2ff15d1461034a5780632f745c591461036a57600080fd5b806301ffc9a71461022a57806306fdde031461025f578063081812fc14610281578063095ea7b3146102b9575b600080fd5b34801561023657600080fd5b5061024a610245366004612c0e565b610711565b60405190151581526020015b60405180910390f35b34801561026b57600080fd5b50610274610722565b6040516102569190612c7b565b34801561028d57600080fd5b506102a161029c366004612c8e565b6107b4565b6040516001600160a01b039091168152602001610256565b3480156102c557600080fd5b506102d96102d4366004612cc3565b6107db565b005b3480156102e757600080fd5b506008545b604051908152602001610256565b34801561030657600080fd5b506102d9610315366004612ced565b6108f5565b34801561032657600080fd5b506102ec610335366004612c8e565b6000908152600b602052604090206001015490565b34801561035657600080fd5b506102d9610365366004612d29565b610927565b34801561037657600080fd5b506102ec610385366004612cc3565b61094c565b34801561039657600080fd5b506102d96103a5366004612d29565b6109e2565b3480156103b657600080fd5b506102d96103c5366004612ced565b610a60565b3480156103d657600080fd5b506102d96103e5366004612c8e565b610a7b565b3480156103f657600080fd5b506013546102ec565b34801561040b57600080fd5b506102ec61041a366004612c8e565b610aac565b34801561042b57600080fd5b50610434610b3f565b6040516102569190612d95565b34801561044d57600080fd5b506102a161045c366004612c8e565b610d66565b34801561046d57600080fd5b506012546102ec565b34801561048257600080fd5b506102ec610491366004612de3565b610dc6565b3480156104a257600080fd5b506104ab610e4c565b6040516102569796959493929190612dfe565b3480156104ca57600080fd5b506104de6104d9366004612c8e565b610ed5565b6040516102569190612e94565b3480156104f757600080fd5b5061024a610506366004612d29565b610f3f565b34801561051757600080fd5b50610274610f6a565b6102d961052e366004612c8e565b610f79565b34801561053f57600080fd5b506102ec600081565b34801561055457600080fd5b506102d9610563366004612ea2565b61117c565b6102d9610576366004612c8e565b611187565b34801561058757600080fd5b506102ec610596366004612c8e565b6111f5565b3480156105a757600080fd5b506102d96105b6366004612f6a565b611266565b6102ec6105c9366004612fe6565b61129e565b6102d96105dc366004612c8e565b6112e2565b3480156105ed57600080fd5b506102746105fc366004612c8e565b61134d565b34801561060d57600080fd5b506104de611358565b34801561062257600080fd5b506102ec7f9f2df0fed2c77648de5860a4cc508cd0818c85b8b8a1ab4ceeef8d981c8956a681565b34801561065657600080fd5b506102d9610665366004612d29565b6113cf565b34801561067657600080fd5b506104346113f4565b34801561068b57600080fd5b506102ec7f65d7a28e3265b37a6474929f336521b332c1681b933f6cb9f3376673440d862a81565b3480156106bf57600080fd5b5061024a6106ce366004613048565b6001600160a01b03918216600090815260056020908152604080832093909416825291909152205460ff1690565b34801561070857600080fd5b506102ec61151e565b600061071c8261152e565b92915050565b60606000805461073190613072565b80601f016020809104026020016040519081016040528092919081815260200182805461075d90613072565b80156107aa5780601f1061077f576101008083540402835291602001916107aa565b820191906000526020600020905b81548152906001019060200180831161078d57829003601f168201915b5050505050905090565b60006107bf82611553565b506000908152600460205260409020546001600160a01b031690565b60006107e682610d66565b9050806001600160a01b0316836001600160a01b0316036108585760405162461bcd60e51b815260206004820152602160248201527f4552433732313a20617070726f76616c20746f2063757272656e74206f776e656044820152603960f91b60648201526084015b60405180910390fd5b336001600160a01b0382161480610874575061087481336106ce565b6108e65760405162461bcd60e51b815260206004820152603d60248201527f4552433732313a20617070726f76652063616c6c6572206973206e6f7420746f60448201527f6b656e206f776e6572206f7220617070726f76656420666f7220616c6c000000606482015260840161084f565b6108f083836115b2565b505050565b610900335b82611620565b61091c5760405162461bcd60e51b815260040161084f906130ac565b6108f083838361169e565b6000828152600b602052604090206001015461094281611817565b6108f08383611821565b600061095783610dc6565b82106109b95760405162461bcd60e51b815260206004820152602b60248201527f455243373231456e756d657261626c653a206f776e657220696e646578206f7560448201526a74206f6620626f756e647360a81b606482015260840161084f565b506001600160a01b03919091166000908152600660209081526040808320938352929052205490565b6001600160a01b0381163314610a525760405162461bcd60e51b815260206004820152602f60248201527f416363657373436f6e74726f6c3a2063616e206f6e6c792072656e6f756e636560448201526e103937b632b9903337b91039b2b63360891b606482015260840161084f565b610a5c82826118a7565b5050565b6108f083838360405180602001604052806000815250611266565b610a84336108fa565b610aa05760405162461bcd60e51b815260040161084f906130ac565b610aa98161190e565b50565b6000610ab760085490565b8210610b1a5760405162461bcd60e51b815260206004820152602c60248201527f455243373231456e756d657261626c653a20676c6f62616c20696e646578206f60448201526b7574206f6620626f756e647360a01b606482015260840161084f565b60088281548110610b2d57610b2d6130f9565b90600052602060002001549050919050565b60606000610b4c600f5490565b905060008080805b84811015610be4573360146000610b6c846001613125565b81526020810191909152604001600020600101546001600160a01b03161480610bbf57503360146000610ba0846001613125565b81526020810191909152604001600020600201546001600160a01b0316145b15610bd257610bcf600185613125565b93505b80610bdc81613138565b915050610b54565b5060008367ffffffffffffffff811115610c0057610c00612ede565b604051908082528060200260200182016040528015610c3957816020015b610c26612b7c565b815260200190600190039081610c1e5790505b50905060005b85811015610d5c573360146000610c57846001613125565b81526020810191909152604001600020600101546001600160a01b03161480610caa57503360146000610c8b846001613125565b81526020810191909152604001600020600201546001600160a01b0316145b15610d4a57610cba816001613125565b600081815260146020908152604091829020825160a0810184528154815260018201546001600160a01b039081169382019390935260028201549092169282019290925260038201546060820152600482015460ff161515608082015284519295509091849087908110610d3057610d306130f9565b6020908102919091010152610d46600186613125565b9450505b80610d5481613138565b915050610c3f565b5095945050505050565b6000818152600260205260408120546001600160a01b03168061071c5760405162461bcd60e51b8152602060048201526018602482015277115490cdcc8c4e881a5b9d985b1a59081d1bdad95b88125160421b604482015260640161084f565b60006001600160a01b038216610e305760405162461bcd60e51b815260206004820152602960248201527f4552433732313a2061646472657373207a65726f206973206e6f7420612076616044820152683634b21037bbb732b960b91b606482015260840161084f565b506001600160a01b031660009081526003602052604090205490565b600060608082808083610e807f0000000000000000000000000000000000000000000000000000000000000000600c611917565b610eab7f0000000000000000000000000000000000000000000000000000000000000000600d611917565b60408051600080825260208201909252600f60f81b9b939a50919850469750309650945092509050565b610edd612b7c565b50600090815260146020908152604091829020825160a0810184528154815260018201546001600160a01b03908116938201939093526002820154909216928201929092526003820154606082015260049091015460ff161515608082015290565b6000918252600b602090815260408084206001600160a01b0393909316845291905290205460ff1690565b60606001805461073190613072565b6000818152601460209081526040918290206003810154600290910154835180850190945260098452681c1c9a58d94e88095960ba1b92840192909252916001600160a01b0390911690610fcd90836119c2565b610ff8604051806040016040528060098152602001681d985b1d594e88095960ba1b815250346119c2565b60408051808201909152600981526876616c75653a20257360b81b602082015260115461102e91906001600160a01b0316611a07565b8134146110a5576040805162461bcd60e51b81526020600482015260248101919091527f506c65617365207375626d6974207468652061736b696e67207072696365206960448201527f6e206f7264657220746f20636f6d706c65746520746865207075726368617365606482015260840161084f565b600083815260146020526040902060048101805460ff1916600117905560020180546001600160a01b031916331790556110e3601080546001019055565b6110ee30338561169e565b6110f830846107db565b60006111043447613151565b6011546040519192506001600160a01b03169082156108fc029083906000818181858888f1935050505015801561113f573d6000803e3d6000fd5b506040516001600160a01b038316903480156108fc02916000818181858888f19350505050158015611175573d6000803e3d6000fd5b5050505050565b610a5c338383611a4c565b6011546001600160a01b031633146111f05760405162461bcd60e51b815260206004820152602660248201527f4f6e6c79206f776e65722063616e207570646174652067656e65726174696f6e604482015265081b1a5b5a5d60d21b606482015260840161084f565b601355565b6040805142602082015244918101919091526bffffffffffffffffffffffff1941606090811b82168184015233901b16607482015260888101829052600090819060a80160408051601f19818403018152919052805160209091012090508261125d81613138565b50909392505050565b6112703383611620565b61128c5760405162461bcd60e51b815260040161084f906130ac565b61129884848484611b1a565b50505050565b60006112ae600f80546001019055565b60006112b9600f5490565b90506112c53382611b4d565b6112cf8186611b67565b6112da818585611c32565b949350505050565b6011546001600160a01b031633146113485760405162461bcd60e51b815260206004820152602360248201527f4f6e6c79206f776e65722063616e20757064617465206c697374696e6720707260448201526269636560e81b606482015260840161084f565b601255565b606061071c82611e46565b611360612b7c565b600061136b600f5490565b600090815260146020908152604091829020825160a0810184528154815260018201546001600160a01b03908116938201939093526002820154909216928201929092526003820154606082015260049091015460ff161515608082015292915050565b6000828152600b60205260409020600101546113ea81611817565b6108f083836118a7565b60606000611401600f5490565b905060008167ffffffffffffffff81111561141e5761141e612ede565b60405190808252806020026020018201604052801561145757816020015b611444612b7c565b81526020019060019003908161143c5790505b509050600080805b8481101561151457611472816001613125565b600081815260146020908152604091829020825160a0810184528154815260018201546001600160a01b039081169382019390935260028201549092169282019290925260038201546060820152600482015460ff1615156080820152865192945090918690869081106114e8576114e86130f9565b60209081029190910101526114fe600185613125565b935050808061150c90613138565b91505061145f565b5091949350505050565b6000611529600f5490565b905090565b60006001600160e01b03198216637965db0b60e01b148061071c575061071c82611f4e565b6000818152600260205260409020546001600160a01b0316610aa95760405162461bcd60e51b8152602060048201526018602482015277115490cdcc8c4e881a5b9d985b1a59081d1bdad95b88125160421b604482015260640161084f565b600081815260046020526040902080546001600160a01b0319166001600160a01b03841690811790915581906115e782610d66565b6001600160a01b03167f8c5be1e5ebec7d5bd14f71427d1e84f3dd0314c0f7b2291e5b200ac8c7c3b92560405160405180910390a45050565b60008061162c83610d66565b9050806001600160a01b0316846001600160a01b0316148061167357506001600160a01b0380821660009081526005602090815260408083209388168352929052205460ff165b806112da5750836001600160a01b031661168c846107b4565b6001600160a01b031614949350505050565b826001600160a01b03166116b182610d66565b6001600160a01b0316146116d75760405162461bcd60e51b815260040161084f90613164565b6001600160a01b0382166117395760405162461bcd60e51b8152602060048201526024808201527f4552433732313a207472616e7366657220746f20746865207a65726f206164646044820152637265737360e01b606482015260840161084f565b6117468383836001611f73565b826001600160a01b031661175982610d66565b6001600160a01b03161461177f5760405162461bcd60e51b815260040161084f90613164565b600081815260046020908152604080832080546001600160a01b03199081169091556001600160a01b0387811680865260038552838620805460001901905590871680865283862080546001019055868652600290945282852080549092168417909155905184937fddf252ad1be2c89b69c2b068fc378daa952ba7f163c4a11628f55a4df523b3ef91a46108f08383836001611f7f565b610aa98133611f84565b61182b8282610f3f565b610a5c576000828152600b602090815260408083206001600160a01b03851684529091529020805460ff191660011790556118633390565b6001600160a01b0316816001600160a01b0316837f2f8788117e7eff1d82e926ec794901d17c78024a50270940304540a733656f0d60405160405180910390a45050565b6118b18282610f3f565b15610a5c576000828152600b602090815260408083206001600160a01b0385168085529252808320805460ff1916905551339285917ff6391f5c32d9c69d2a47ea670b442974b53935d1edc7fd64eb21e047a839171b9190a45050565b610aa981611fdd565b606060ff83146119315761192a8361201d565b905061071c565b81805461193d90613072565b80601f016020809104026020016040519081016040528092919081815260200182805461196990613072565b80156119b65780601f1061198b576101008083540402835291602001916119b6565b820191906000526020600020905b81548152906001019060200180831161199957829003601f168201915b5050505050905061071c565b610a5c82826040516024016119d89291906131a9565b60408051601f198184030181529190526020810180516001600160e01b0316632d839cb360e21b17905261205c565b610a5c8282604051602401611a1d9291906131cb565b60408051601f198184030181529190526020810180516001600160e01b031663319af33360e01b17905261205c565b816001600160a01b0316836001600160a01b031603611aad5760405162461bcd60e51b815260206004820152601960248201527f4552433732313a20617070726f766520746f2063616c6c657200000000000000604482015260640161084f565b6001600160a01b03838116600081815260056020908152604080832094871680845294825291829020805460ff191686151590811790915591519182527f17307eab39ab6107e8899845ad3d59bd9653f200f220920489ca2b5937696c31910160405180910390a3505050565b611b2584848461169e565b611b3184848484612065565b6112985760405162461bcd60e51b815260040161084f906131f5565b610a5c828260405180602001604052806000815250612166565b6000828152600260205260409020546001600160a01b0316611be25760405162461bcd60e51b815260206004820152602e60248201527f45524337323155524953746f726167653a2055524920736574206f66206e6f6e60448201526d32bc34b9ba32b73a103a37b5b2b760911b606482015260840161084f565b6000828152600a60205260409020611bfa8282613295565b506040518281527ff8e1a15aba9398e019f0b49df1a4fde98ee17ae345cb5f6b5e2c27f5033e8ce79060200160405180910390a15050565b8015611c9b57611c4181612199565b3414611c9b5760405162461bcd60e51b815260206004820152602360248201527f486f706566756c6c792073656e64696e672074686520636f727265637420707260448201526269636560e81b606482015260840161084f565b60008211611cf65760405162461bcd60e51b815260206004820152602260248201527f4d616b652073757265207468652070726963652069736e2774206e6567617469604482015261766560f01b606482015260840161084f565b6000811180611d0f57506011546001600160a01b031633145b611d5b5760405162461bcd60e51b815260206004820152601e60248201527f4f6e6c79204f776e6572206372656174652067656e65726174696f6e20300000604482015260640161084f565b6040805160a081018252848152306020808301828152338486018181526060860189815260016080880181815260008d815260149097529890952096518755925193860180546001600160a01b039586166001600160a01b03199182161790915590516002870180549190951691161790925551600384015592516004909201805492151560ff1990931692909217909155611df891908561169e565b604080513081523360208201529081018390526001606082015283907f9339409317fd01fabff48b703019016f49159bacc801ae872d2ca637d226e4c09060800160405180910390a2505050565b6060611e5182611553565b6000828152600a602052604081208054611e6a90613072565b80601f0160208091040260200160405190810160405280929190818152602001828054611e9690613072565b8015611ee35780601f10611eb857610100808354040283529160200191611ee3565b820191906000526020600020905b815481529060010190602001808311611ec657829003601f168201915b505050505090506000611f0160408051602081019091526000815290565b90508051600003611f13575092915050565b815115611f45578082604051602001611f2d929190613355565b60405160208183030381529060405292505050919050565b6112da84612225565b60006001600160e01b03198216632483248360e11b148061071c575061071c82612298565b611298848484846122bd565b611298565b611f8e8282610f3f565b610a5c57611f9b816123ea565b611fa68360206123fc565b604051602001611fb7929190613384565b60408051601f198184030181529082905262461bcd60e51b825261084f91600401612c7b565b611fe681612598565b6000818152600a602052604090208054611fff90613072565b159050610aa9576000818152600a60205260408120610aa991612baa565b6060600061202a83612645565b604080516020808252818301909252919250600091906020820181803683375050509182525060208101929092525090565b610aa98161266d565b60006001600160a01b0384163b1561215b57604051630a85bd0160e11b81526001600160a01b0385169063150b7a02906120a99033908990889088906004016133f9565b6020604051808303816000875af19250505080156120e4575060408051601f3d908101601f191682019092526120e191810190613436565b60015b612141573d808015612112576040519150601f19603f3d011682016040523d82523d6000602084013e612117565b606091505b5080516000036121395760405162461bcd60e51b815260040161084f906131f5565b805181602001fd5b6001600160e01b031916630a85bd0160e11b1490506112da565b506001949350505050565b612170838361268e565b61217d6000848484612065565b6108f05760405162461bcd60e51b815260040161084f906131f5565b60008064e8d4a51000670de0b6b3a764000084601254670de0b6b3a76400006121c29190613453565b6121cc9190613480565b6121d69190613480565b6121e09190613494565b670de0b6b3a764000084601254670de0b6b3a76400006122009190613453565b61220a9190613480565b6122149190613480565b61221e9190613151565b9392505050565b606061223082611553565b600061224760408051602081019091526000815290565b90506000815111612267576040518060200160405280600081525061221e565b8061227184612831565b604051602001612282929190613355565b6040516020818303038152906040529392505050565b60006001600160e01b0319821663780e9d6360e01b148061071c575061071c826128c4565b600181111561232c5760405162461bcd60e51b815260206004820152603560248201527f455243373231456e756d657261626c653a20636f6e7365637574697665207472604482015274185b9cd9995c9cc81b9bdd081cdd5c1c1bdc9d1959605a1b606482015260840161084f565b816001600160a01b0385166123885761238381600880546000838152600960205260408120829055600182018355919091527ff3f7a9fe364faab93b216da50a3214154f22a0a2b415b23a84c8169e8b636ee30155565b6123ab565b836001600160a01b0316856001600160a01b0316146123ab576123ab8582612914565b6001600160a01b0384166123c7576123c2816129b1565b611175565b846001600160a01b0316846001600160a01b031614611175576111758482612a60565b606061071c6001600160a01b03831660145b6060600061240b836002613453565b612416906002613125565b67ffffffffffffffff81111561242e5761242e612ede565b6040519080825280601f01601f191660200182016040528015612458576020820181803683370190505b509050600360fc1b81600081518110612473576124736130f9565b60200101906001600160f81b031916908160001a905350600f60fb1b816001815181106124a2576124a26130f9565b60200101906001600160f81b031916908160001a90535060006124c6846002613453565b6124d1906001613125565b90505b6001811115612549576f181899199a1a9b1b9c1cb0b131b232b360811b85600f1660108110612505576125056130f9565b1a60f81b82828151811061251b5761251b6130f9565b60200101906001600160f81b031916908160001a90535060049490941c93612542816134a8565b90506124d4565b50831561221e5760405162461bcd60e51b815260206004820181905260248201527f537472696e67733a20686578206c656e67746820696e73756666696369656e74604482015260640161084f565b60006125a382610d66565b90506125b3816000846001611f73565b6125bc82610d66565b600083815260046020908152604080832080546001600160a01b03199081169091556001600160a01b0385168085526003845282852080546000190190558785526002909352818420805490911690555192935084927fddf252ad1be2c89b69c2b068fc378daa952ba7f163c4a11628f55a4df523b3ef908390a4610a5c816000846001611f7f565b600060ff8216601f81111561071c57604051632cd44ac360e21b815260040160405180910390fd5b60006a636f6e736f6c652e6c6f679050600080835160208501845afa505050565b6001600160a01b0382166126e45760405162461bcd60e51b815260206004820181905260248201527f4552433732313a206d696e7420746f20746865207a65726f2061646472657373604482015260640161084f565b6000818152600260205260409020546001600160a01b0316156127495760405162461bcd60e51b815260206004820152601c60248201527f4552433732313a20746f6b656e20616c7265616479206d696e74656400000000604482015260640161084f565b612757600083836001611f73565b6000818152600260205260409020546001600160a01b0316156127bc5760405162461bcd60e51b815260206004820152601c60248201527f4552433732313a20746f6b656e20616c7265616479206d696e74656400000000604482015260640161084f565b6001600160a01b038216600081815260036020908152604080832080546001019055848352600290915280822080546001600160a01b0319168417905551839291907fddf252ad1be2c89b69c2b068fc378daa952ba7f163c4a11628f55a4df523b3ef908290a4610a5c600083836001611f7f565b6060600061283e83612aa4565b600101905060008167ffffffffffffffff81111561285e5761285e612ede565b6040519080825280601f01601f191660200182016040528015612888576020820181803683370190505b5090508181016020015b600019016f181899199a1a9b1b9c1cb0b131b232b360811b600a86061a8153600a850494508461289257509392505050565b60006001600160e01b031982166380ac58cd60e01b14806128f557506001600160e01b03198216635b5e139f60e01b145b8061071c57506301ffc9a760e01b6001600160e01b031983161461071c565b6000600161292184610dc6565b61292b9190613151565b60008381526007602052604090205490915080821461297e576001600160a01b03841660009081526006602090815260408083208584528252808320548484528184208190558352600790915290208190555b5060009182526007602090815260408084208490556001600160a01b039094168352600681528383209183525290812055565b6008546000906129c390600190613151565b600083815260096020526040812054600880549394509092849081106129eb576129eb6130f9565b906000526020600020015490508060088381548110612a0c57612a0c6130f9565b6000918252602080832090910192909255828152600990915260408082208490558582528120556008805480612a4457612a446134bf565b6001900381819060005260206000200160009055905550505050565b6000612a6b83610dc6565b6001600160a01b039093166000908152600660209081526040808320868452825280832085905593825260079052919091209190915550565b60008072184f03e93ff9f4daa797ed6e38ed64bf6a1f0160401b8310612ae35772184f03e93ff9f4daa797ed6e38ed64bf6a1f0160401b830492506040015b6d04ee2d6d415b85acef81000000008310612b0f576d04ee2d6d415b85acef8100000000830492506020015b662386f26fc100008310612b2d57662386f26fc10000830492506010015b6305f5e1008310612b45576305f5e100830492506008015b6127108310612b5957612710830492506004015b60648310612b6b576064830492506002015b600a831061071c5760010192915050565b6040805160a08101825260008082526020820181905291810182905260608101829052608081019190915290565b508054612bb690613072565b6000825580601f10612bc6575050565b601f016020900490600052602060002090810190610aa991905b80821115612bf45760008155600101612be0565b5090565b6001600160e01b031981168114610aa957600080fd5b600060208284031215612c2057600080fd5b813561221e81612bf8565b60005b83811015612c46578181015183820152602001612c2e565b50506000910152565b60008151808452612c67816020860160208601612c2b565b601f01601f19169290920160200192915050565b60208152600061221e6020830184612c4f565b600060208284031215612ca057600080fd5b5035919050565b80356001600160a01b0381168114612cbe57600080fd5b919050565b60008060408385031215612cd657600080fd5b612cdf83612ca7565b946020939093013593505050565b600080600060608486031215612d0257600080fd5b612d0b84612ca7565b9250612d1960208501612ca7565b9150604084013590509250925092565b60008060408385031215612d3c57600080fd5b82359150612d4c60208401612ca7565b90509250929050565b805182526020808201516001600160a01b039081169184019190915260408083015190911690830152606080820151908301526080908101511515910152565b6020808252825182820181905260009190848201906040850190845b81811015612dd757612dc4838551612d55565b9284019260a09290920191600101612db1565b50909695505050505050565b600060208284031215612df557600080fd5b61221e82612ca7565b60ff60f81b881681526000602060e081840152612e1e60e084018a612c4f565b8381036040850152612e30818a612c4f565b606085018990526001600160a01b038816608086015260a0850187905284810360c0860152855180825283870192509083019060005b81811015612e8257835183529284019291840191600101612e66565b50909c9b505050505050505050505050565b60a0810161071c8284612d55565b60008060408385031215612eb557600080fd5b612ebe83612ca7565b915060208301358015158114612ed357600080fd5b809150509250929050565b634e487b7160e01b600052604160045260246000fd5b600067ffffffffffffffff80841115612f0f57612f0f612ede565b604051601f8501601f19908116603f01168101908282118183101715612f3757612f37612ede565b81604052809350858152868686011115612f5057600080fd5b858560208301376000602087830101525050509392505050565b60008060008060808587031215612f8057600080fd5b612f8985612ca7565b9350612f9760208601612ca7565b925060408501359150606085013567ffffffffffffffff811115612fba57600080fd5b8501601f81018713612fcb57600080fd5b612fda87823560208401612ef4565b91505092959194509250565b600080600060608486031215612ffb57600080fd5b833567ffffffffffffffff81111561301257600080fd5b8401601f8101861361302357600080fd5b61303286823560208401612ef4565b9660208601359650604090950135949350505050565b6000806040838503121561305b57600080fd5b61306483612ca7565b9150612d4c60208401612ca7565b600181811c9082168061308657607f821691505b6020821081036130a657634e487b7160e01b600052602260045260246000fd5b50919050565b6020808252602d908201527f4552433732313a2063616c6c6572206973206e6f7420746f6b656e206f776e6560408201526c1c881bdc88185c1c1c9bdd9959609a1b606082015260800190565b634e487b7160e01b600052603260045260246000fd5b634e487b7160e01b600052601160045260246000fd5b8082018082111561071c5761071c61310f565b60006001820161314a5761314a61310f565b5060010190565b8181038181111561071c5761071c61310f565b60208082526025908201527f4552433732313a207472616e736665722066726f6d20696e636f72726563742060408201526437bbb732b960d91b606082015260800190565b6040815260006131bc6040830185612c4f565b90508260208301529392505050565b6040815260006131de6040830185612c4f565b905060018060a01b03831660208301529392505050565b60208082526032908201527f4552433732313a207472616e7366657220746f206e6f6e20455243373231526560408201527131b2b4bb32b91034b6b83632b6b2b73a32b960711b606082015260800190565b601f8211156108f057600081815260208120601f850160051c8101602086101561326e5750805b601f850160051c820191505b8181101561328d5782815560010161327a565b505050505050565b815167ffffffffffffffff8111156132af576132af612ede565b6132c3816132bd8454613072565b84613247565b602080601f8311600181146132f857600084156132e05750858301515b600019600386901b1c1916600185901b17855561328d565b600085815260208120601f198616915b8281101561332757888601518255948401946001909101908401613308565b50858210156133455787850151600019600388901b60f8161c191681555b5050505050600190811b01905550565b60008351613367818460208801612c2b565b83519083019061337b818360208801612c2b565b01949350505050565b7f416363657373436f6e74726f6c3a206163636f756e74200000000000000000008152600083516133bc816017850160208801612c2b565b7001034b99036b4b9b9b4b733903937b6329607d1b60179184019182015283516133ed816028840160208801612c2b565b01602801949350505050565b6001600160a01b038581168252841660208201526040810183905260806060820181905260009061342c90830184612c4f565b9695505050505050565b60006020828403121561344857600080fd5b815161221e81612bf8565b808202811582820484141761071c5761071c61310f565b634e487b7160e01b600052601260045260246000fd5b60008261348f5761348f61346a565b500490565b6000826134a3576134a361346a565b500690565b6000816134b7576134b761310f565b506000190190565b634e487b7160e01b600052603160045260246000fdfea2646970667358221220a8abe22247273ed9157019b271f2ff3d17b089ed5b8187b5ef69cf9a6c3fcb9564736f6c63430008130033",
  "linkReferences": {},
  "deployedLinkReferences": {}
}